:100000000C942A000C9434000C9434000C943400AA
:100010000C9434000C9434000C9434000C94340090
:100020000C9434000C9434000C9434000C94340080
:100030000C9434000C9434000C9434000C94340070
:100040000C9434000C9434000C9434000C94340060
:100050000C94340011241FBECFE5D4E0DEBFCDBF29
:100060000E9446000C945F000C940000A39AAB9889
:10007000089583B3886085BB089583B3877F85BB6C
:100080000895F8940E943600789408950E944100E3
:100090000E9439002FEF8FEF9CE22150804090406A
:1000A000E1F700C000000E943D002FEF8FEF9CE2BF
:1000B000215080409040E1F700C00000E9CFF89463
:0200C000FFCF70
:00000001FF
