:100000000C942A000C9447000C9447000C94470071
:100010000C9447000C9447000C9447000C94470044
:100020000C9447000C9447000C9447000C943F013B
:100030000C9447000C9447000C9447000C94470024
:100040000C9447000C9447000C9447000C94470014
:100050000C94470011241FBECFE5D4E0DEBFCDBF16
:1000600010E0A0E6B0E0ECEBF2E002C005900D92EB
:10007000A036B107D9F720E0A0E6B0E001C01D929C
:10008000A236B207E1F70E94D7000C945C010C94F1
:10009000000095B39F7095BB95B3282F207F922BBE
:1000A00095BBA898A998AA9AEFEFF3E23197F1F7D8
:1000B00000C00000AA9895B39F7095BB95B3829538
:1000C000807F892B85BBA898A998AA9A8FEF93E285
:1000D0000197F1F700C00000AA98089584B3876FD4
:1000E00084BB85B3807885BB089583E397E001974F
:1000F000F1F7A898A99880E385BBAA9AEFEFF3E2FD
:100100003197F1F700C00000AA98E3E3F7E03197D8
:10011000F1F7A898A99885BBAA9AEFEFF3E2319777
:10012000F1F700C00000AA98E3E3F7E03197F1F798
:10013000A898A99885BBAA9A8FEF93E20197F1F747
:1001400000C00000AA98E3E3F7E03197F1F7A89820
:10015000A99880E285BBAA9A8FEF93E20197F1F705
:1001600000C00000AA98E3E3F7E03197F1F788E2D6
:100170000E94490081E00E94490086E00E944900F7
:100180008EE00E94490080E80E94490008950E9484
:1001900006010E946E000895F8940E94C7000E9414
:1001A00075000E9427010E943501789408950E94ED
:1001B000CC00809160008823E1F38091610080325F
:1001C00019F40E942301F5CF80916100873719F45B
:1001D0000E941301EECF80916100843619F40E94D1
:1001E0001F01E7CF80916100813619F40E941B0145
:1001F000E0CF809161008337E1F60E941701D9CFEB
:1002000098B3907F8F70982B98BB089587B38F60B9
:1002100087BB88B3807F88BB81B3806381BB82B397
:10022000806382BB089586E00E940001089589E002
:100230000E940001089585E00E94000108958AE06F
:100240000E940001089580E00E94000108951EBCF4
:100250008FEF8DBD91E09CBD1BBC8ABD19BC88BDD4
:1002600081EA8FBD8DE08EBD08951AB81BB886E86F
:1002700080BD8FE289B910BC88E98AB908951F92C0
:100280000F920FB60F9211248F938CB1809361005F
:10029000809160008F5F8093600080916100803268
:1002A00029F4809160008150809360008F910F90BD
:0C02B0000FBE0F901F901895F894FFCF20
:00000001FF
