:100000000C9450000C9472030C944D030C946D00EE
:100010000C946D000C946D000C946D000C946D00AC
:100020000C943F050C946D000C946D000C94A90584
:100030000C946D000C946D000C946D000C946D008C
:100040000C946D000C946D000C946D000C946D007C
:100050000C946D00084AD73B3BCE016E84BCBFFDBB
:10006000C12F3D6C74319ABD56833DDA3D00C77F88
:1000700011BED9E4BB4C3E916BAAAABE0000008021
:100080003F05A84CCDB2D44EB93836A9020C50B9B0
:10009000918688083CA6AAAA2ABE000000803F00DC
:1000A00011241FBECFE5D4E0DEBFCDBF10E0A0E637
:1000B000B0E0E8E9F3E102C005900D92A036B10787
:1000C000D9F720E0A0E6B0E001C01D92A73EB2073C
:1000D000E1F70E94F4020C94CA090C940000A39A60
:1000E000AB98089583B3886085BB089583B3877FF9
:1000F00085BB089595B39F7095BB95B3282F207F3E
:10010000922B95BBA898A998AA9AEFEFF3E23197A2
:10011000F1F700C00000AA9895B39F7095BB95B306
:100120008295807F892B85BBA898A998AA9A8FEF82
:1001300093E20197F1F700C00000AA98089584B3F4
:10014000876F84BB85B3807885BB089583E397E090
:100150000197F1F7A898A99880E385BBAA9AEFEFD9
:10016000F3E23197F1F700C00000AA98E3E3F7E06B
:100170003197F1F7A898A99885BBAA9AEFEFF3E217
:100180003197F1F700C00000AA98E3E3F7E0319758
:10019000F1F7A898A99885BBAA9A8FEF93E20197E7
:1001A000F1F700C00000AA98E3E3F7E03197F1F718
:1001B000A898A99880E285BBAA9A8FEF93E201974D
:1001C000F1F700C00000AA98E3E3F7E03197F1F7F8
:1001D00088E20E947A0081E00E947A0086E00E9414
:1001E0007A008EE00E947A0080E80E947A000895EA
:1001F0000E9497030E949F000E94B8030E94BB03C5
:100200000E946F000895F8940E94F8000E94A600D2
:100210000E942F050E949F050E94BE030E94C503F5
:10022000789408958091890090918A008130910599
:1002300031F50E94B4032FEF8FE392E0215080400C
:100240009040E1F700C000006AE58AE50E949C0545
:1002500080918B0090918C00C39724F082E390E012
:100260000E94600480918B0090918C000E946B042E
:1002700082E390E00E9455040E94B403089502971F
:1002800029F50E94B4032FEF8FE392E021508040C4
:100290009040E1F700C000006AE58AE50E949C05F5
:1002A00080918B0090918C00C39724F082E390E0C2
:1002B0000E94600480918B0090918C000E947604D3
:1002C00082E390E00E9455040E94B40308952F92A7
:1002D0003F924F925F926F927F928F929F92AF92D6
:1002E000BF92CF92DF92EF92FF920F931F93CF9323
:1002F000DF93CDB7DEB72A970FB6F894DEBF0FBEF7
:10030000CDBF9A838983E0908100F0908200809134
:10031000850090918600B701681B790B072E000CB1
:10032000880B990B0E94A1070E9456094B015C01A2
:10033000009183001091840080917F009091800053
:100340009801281B390BB901330F880B990B0E94B8
:10035000A1070E9456092B013C01A3019201C5018E
:10036000B4010E9414060E9416090E94690781E0E8
:10037000643671050CF080E0A82FB0E0BA87A98739
:10038000B0936100A0936000012B11F0EF2849F4B5
:100390000E94B40381E090E090936100809360003C
:1003A0000AC1882361F008EC10E00F2EFDEC2F2E1F
:1003B000FCEC3F2E432CFEE35F2EF02D0AC000E93B
:1003C00011E00F2EF3E32F2E322C422CFFE35F2E91
:1003D000F02D653171050CF4ECC060918F007091C7
:1003E000900080918D0090918E00681B790B072EF4
:1003F000000C880B990B0E94A10723EC35EF48E411
:1004000050E40E949B0820E030E044E353E40E9463
:10041000F7066B017C010E94F2064B015C01C701EB
:10042000B6010E940809A50194010E94930623EADF
:100430003CE445E652E40E949B086B017C0160931A
:100440009100709392008093930090939400E981BF
:10045000FA81BF01FF0F880B990B0E94A1074B0186
:100460005C019B01AC01C701B6010E949B08209171
:100470006A0030916B0040916C0050916D000E94B9
:1004800014066D837E838F83988760936A007093D0
:100490006B0080936C0090936D0020916E00309102
:1004A0006F004091700050917100C701B6010E9429
:1004B0001306A50194010E94F7064B015C016093AD
:1004C0006600709367008093680090936900C09203
:1004D0006E00D0926F00E0927000F0927100B8014F
:1004E000660F771F072E000C880B990B0E94A1073F
:1004F00069837A838B839C83A7019601C201B10132
:100500000E949B086B017C0120E030E0A9016D8115
:100510007E818F8198850E949B089B01AC01C70159
:10052000B6010E9414066B017C0120E030E04CE82B
:1005300052E4C501B4010E949B089B01AC01C701B4
:10054000B6010E94140620E030E040E351E40E942E
:100550009B086B017C019B01AC0169817A818B81D5
:100560009C810E94130620E030E040EC50E40E94A1
:10057000F7060E9469072B013C01A70196016981DA
:100580007A818B819C810E94140620E030E040EC4F
:1005900050E40E94F7060E946907DC01CB01B2011A
:1005A0000E94560529853A853093610020936000AA
:1005B00002C00E94B4032A960FB6F894DEBF0FBEA5
:1005C000CDBFDF91CF911F910F91FF90EF90DF9002
:1005D000CF90BF90AF909F908F907F906F905F90E3
:1005E0004F903F902F9008950E9403010E94720047
:1005F0002FEF8FE392E0215080409040E1F700C060
:1006000000000E94760080917A0090917B002091FA
:10061000640030916500821B930B4797A0F0809196
:100620007A0090917B0090936500809364000E9413
:1006300081048091890090918A00892B21F482E3C2
:1006400090E00E94670180917A0090917B00209158
:10065000620030916300821B930B4797A0F2809158
:100660007A0090917B009093630080936200809168
:10067000890090918A00892B31F2809160009091DD
:100680006100892B09F0BFCF0E941201BCCF98B343
:10069000907F8F70982B98BB08951F920F920FB682
:1006A0000F9211248F939F93AF93BF938091720009
:1006B00090917300A0917400B09175000196A11DF6
:1006C000B11D8093720090937300A0937400B09357
:1006D0007500BF91AF919F918F910F900FBE0F90BA
:1006E0001F9018951F920F920FB60F9211248F939F
:1006F0009F93AF93BF938091760090917700A091E4
:100700007800B09179000196A11DB11D809376000B
:1007100090937700A0937800B0937900BF91AF9148
:100720009F918F910F900FBE0F901F90189587B3D8
:100730008F6087BB88B3807F88BB81B3806381BBB8
:1007400082B3806382BB089586E00E9447030895C8
:1007500089E00E944703089585E00E9447030895B9
:100760008AE00E944703089580E00E9447030895AD
:100770008B98939A08958A98929A089585B7846081
:1007800085BF8BB780688BBF089585B7816085BFB3
:100790008BB780648BBF089580E00E944703089563
:1007A0000F931F93BC0180E090E00E949F079B0184
:1007B000AC010E9414062AE939E94DE451E40E9493
:1007C000F7060E9470078B0120E030E01092720063
:1007D00010927300109274001092750010927600BF
:1007E0001092770010927800109279008091720038
:1007F00090917300A0917400B091750040917600C3
:10080000509177006091780070917900840F951F66
:10081000A61FB71FB695A79597958795801791073F
:10082000A207B30718F30E94CC031F910F910895FC
:100830000F931F93880F991FBC0180E090E00E94E6
:100840009F0722E538EB4EE451E40E94F7060E9430
:1008500070078B019C01109272001092730010922D
:100860007400109275008091720090917300A091B5
:100870007400B091750040917600509177006091BE
:10088000780070917900840F951FA61FB71FB69549
:10089000A7959795879580179107A207B30718F337
:1008A0000E94CC031F910F910895CF93DF93EC0129
:1008B0000E94A403CE010E941804DF91CF910895F5
:1008C000CF93DF93EC010E94A803CE010E9418048D
:1008D000DF91CF910895CF93DF93EC010E94AC0399
:1008E000CE010E94D003DF91CF910895CF93DF9383
:1008F000EC010E94B003CE010E94D003DF91CF91A2
:1009000008959F92AF92BF92CF92DF92EF92FF92A3
:100910000F931F93CF93DF93CDB7DEB7CA55D1099D
:100920000FB6F894DEBF0FBECDBF65E970E0CE0113
:10093000C3960E94AC09912CCE01C3965C016FE274
:1009400070E0C5010E94A1096C01009729F18C019A
:100950000A191B09292D30E07901EE0CFF1CEE0C61
:10096000FF1CE20EF31EA801B50181E090E08C0FA0
:100970009D1F8E0D9F1D0E94B3090E0D1F1DE1E0EE
:10098000F0E0EC0FFD1FE00FF11F10829394560171
:100990009FEFA91AB90AD3CFCE0106960E94830908
:1009A0009093800080937F00CE010B960E94830974
:1009B0009093860080938500CE0140960E94830923
:1009C0008C5192409C0122F422273327281B390B9B
:1009D0003093900020938F00CE0145960E948309AA
:1009E0009093840080938300CE014A960E948309ED
:1009F0009093820080938100CE014F960E948309DC
:100A00008C5192409C0122F422273327281B390B5A
:100A100030938E0020938D00CE0184960E9483092E
:100A200090938A0080938900CE0189960E94830961
:100A300090938C0080938B00C65ADF4F0FB6F894CA
:100A4000DEBF0FBECDBFDF91CF911F910F91FF9001
:100A5000EF90DF90CF90BF90AF909F9008951EBC15
:100A60008FEF8DBD91E09CBD1BBC8ABD19BC88BDBC
:100A700081EA8FBD84E089BF8BE08EBD08951F920F
:100A80000F920FB60F9211248F939F9380917A004B
:100A900090917B00019690937B0080937A009F91C8
:100AA0008F910F900FBE0F901F9018950F931F936B
:100AB000CF93DF93EC018B0199232CF077239CF1EA
:100AC0000E94A4032DC01616170664F40E94AC03FE
:100AD000CE01DD2324F4882799278C1B9D0BEC0184
:100AE000A8961EC0181619067CF477236CF40E9491
:100AF000B003C801992324F488279927801B910B00
:100B00008C01085D1F4F0CC00E94A803DD231CF45C
:100B1000D195C195D10911231CF4119501951109A5
:100B2000CABD08BD04C0181619060CF3EDCFDF913D
:100B3000CF911F910F9108958ABD68BD08951AB88D
:100B40001BB886E880BD83E089B910BC88E98AB902
:100B500008951F920F920FB60F9211242F933F9377
:100B60004F935F936F937F938F939F93AF93BF93B5
:100B7000EF93FF938091BE008093BD008CB1809372
:100B8000BE006FEB70E085E990E00E94AC098091B7
:100B9000BD008C3361F48091BE00833241F481E06A
:100BA00080937C0010927E0010927D002BC080917B
:100BB000BD00833269F48091BE008E3349F41092F7
:100BC0007C006FEB70E085E990E00E94AC091AC0F0
:100BD00080917C008130B1F48091BE00833291F02D
:100BE000E0917D00F0917E008091BE00E154FF4FC6
:100BF000808380917D0090917E00019690937E008D
:100C000080937D00FF91EF91BF91AF919F918F9164
:100C10007F916F915F914F913F912F910F900FBEF8
:100C20000F901F9018955058BB27AA270E942B069B
:100C30000C9445080E940C0838F00E94130820F01C
:100C400039F49F3F19F426F40C94E2070EF4E09572
:100C5000E7FB0C94DC07E92F0E946A0858F3BA17E7
:100C6000620773078407950720F079F4A6F50C94C2
:100C70008C080EF4E0950B2EBA2FA02D0B01B901B4
:100C800090010C01CA01A0011124FF27591B99F002
:100C9000593F50F4503E68F11A16F040A22F232F0E
:100CA000342F4427585FF3CF469537952795A7955E
:100CB000F0405395C9F77EF41F16BA0B620B730B05
:100CC000840BBAF09150A1F0FF0FBB1F661F771F76
:100CD000881FC2F70EC0BA0F621F731F841F48F42B
:100CE000879577956795B795F7959E3F08F0B0CFB4
:100CF0009395880F08F09927EE0F9795879508959B
:100D00000E940C0860F080E891E009F49EEF0E94D8
:100D1000130828F040E851E071F45EEF0CC00C9429
:100D2000E2070C948C08E92FE0780E946A0840F3EF
:100D3000092E052AB1F3261737074807590738F057
:100D40000E2E07F8E02569F0E025E0640AC0EF63A5
:100D500007F8009407FADB01B9019D01DC01CA0123
:100D6000AD01EF930E940E070E9445080E94C30642
:100D70005F91552339F02BED3FE049E450FD49ECFC
:100D80000C9414060895DF93DD27B92FBF7740E850
:100D90005FE31616170648075B0718F4D92F0E9461
:100DA00093089F938F937F936F930E945609E4E576
:100DB000F0E00E94E5070E9445082F913F914F9176
:100DC0005F910E94AE08DD2351F09058A2EA2AED0F
:100DD0003FE049EC5FE3D0785D270E942B06DF916E
:100DE0000C9445080E941C08E3950C9456080E9438
:100DF0000B070C9445080E94130858F00E940C0839
:100E000040F029F45F3F29F00C94DC0751110C9459
:100E10008D080C94E2070E946A0868F39923B1F3E5
:100E2000552391F3951B550BBB27AA276217730710
:100E3000840738F09F5F5F4F220F331F441FAA1FA4
:100E4000A9F335D00E2E3AF0E0E832D09150504060
:100E5000E695001CCAF72BD0FE2F29D0660F771F0E
:100E6000881FBB1F261737074807AB07B0E809F0F4
:100E7000BB0B802DBF01FF2793585F4F3AF09E3F79
:100E8000510578F00C94DC070C948D085F3FE4F377
:100E9000983ED4F3869577956795B795F7959F5FBC
:100EA000C9F7880F911D9695879597F90895E1E008
:100EB000660F771F881FBB1F621773078407BA0767
:100EC00020F0621B730B840BBA0BEE1F88F7E095C2
:100ED00008950E9470076894B1110C948D080895CC
:100EE0000E94720888F09F5798F0B92F9927B75140
:100EF000B0F0E1F0660F771F881F991F1AF0BA95BE
:100F0000C9F714C0B13091F00E948C08B1E0089587
:100F10000C948C08672F782F8827B85F39F0B93F79
:100F2000CCF3869577956795B395D9F73EF4909570
:100F30008095709561957F4F8F4F9F4F0895E894EE
:100F400009C097FB3EF490958095709561957F4F11
:100F50008F4F9F4F9923A9F0F92F96E9BB279395BF
:100F6000F695879577956795B795F111F8CFFAF4CF
:100F7000BB0F11F460FF1BC06F5F7F4F8F4F9F4F00
:100F800016C0882311F096E911C0772321F09EE85E
:100F9000872F762F05C0662371F096E8862F70E0C4
:100FA00060E02AF09A95660F771F881FDAF7880F9E
:100FB0009695879597F9089597F99F6780E870E06F
:100FC00060E008959FEF80EC0895DF93CF931F9327
:100FD0000F93FF92EF92DF927B018C01689406C021
:100FE000DA2EEF010E94AE08FE01E894A59125914A
:100FF000359145915591A6F3EF010E942B06FE0114
:101000009701A801DA9469F7DF90EF90FF900F91B4
:101010001F91CF91DF91089500240A9416161706A8
:1010200018060906089500240A94121613061406D9
:10103000050608950C94E2070E947208D8F3E8941C
:10104000E0E0BB279F57F0F02AED3FE049EC06C0F7
:10105000EE0FBB0F661F771F881F28F0B23A62079A
:101060007307840728F0B25A620B730B840BE39565
:101070009A9572F7803830F49A95BB0F661F771FE8
:10108000881FD2F790480C945C09092E0394000C39
:1010900011F4882352F0BB0F40F4BF2B11F460FF12
:1010A00004C06F5F7F4F8F4F9F4F0895EF93E0FF16
:1010B00007C0A2EA2AED3FE049EC5FEB0E942B0655
:1010C0000E9445080F90039401FC9058E1E8F0E07D
:1010D0000C946F0957FD9058440F551F59F05F3F0E
:1010E00071F04795880F97FB991F61F09F3F79F04A
:1010F00087950895121613061406551FF2CF4695CC
:10110000F1DF08C0161617061806991FF1CF86954D
:101110007105610508940895E894BB276627772731
:10112000CB0197F908959B01AC0160E070E080E885
:101130009FE30C94F7060E94AE080C9445080E94A9
:101140000C0838F00E94130820F0952311F00C943D
:10115000DC070C94E20711240C948D080E946A08A5
:1011600070F3959FC1F3950F50E0551F629FF001FA
:10117000729FBB27F00DB11D639FAA27F00DB11D13
:10118000AA1F649F6627B00DA11D661F829F22279C
:10119000B00DA11D621F739FB00DA11D621F839F23
:1011A000A00D611D221F749F3327A00D611D231FF9
:1011B000849F600D211D822F762F6A2F11249F5747
:1011C00050409AF0F1F088234AF0EE0FFF1FBB1F4A
:1011D000661F771F881F91505040A9F79E3F510509
:1011E00080F00C94DC070C948D085F3FE4F3983E8C
:1011F000D4F3869577956795B795F795E7959F5FB3
:10120000C1F7FE2B880F911D9695879597F9089544
:101210009F930E941C080F9007FCEE5F0C945608E9
:1012200019F416F40C94E2070C945A090E947208FF
:10123000B8F39923C9F3B6F39F57550B87FF0E9464
:1012400068090024A0E640EA9001805856959795D9
:1012500028F4805C660F771F881F20F02617370759
:10126000480730F4621B730B840B202931294A2B69
:10127000A69517940794202531254A2758F7660F1D
:10128000771F881F20F026173707480730F4620BB6
:10129000730B840B200D311D411DA09581F7B90101
:1012A000842F9158880F9695879508959B01AC01DE
:1012B0000C949B089F3F31F0915020F487957795CF
:1012C0006795B795880F911D9695879597F908951D
:1012D00091505040660F771F881FD2F708959F9353
:1012E0008F937F936F93FF93EF939B01AC010E94C9
:1012F0009B08EF91FF910E94E5072F913F914F913D
:101300005F910C949B08FC0188279927E894219110
:101310002032E9F3293010F02E30C8F32B3241F09F
:101320002D3239F4689404C00E94C209820F911DC5
:10133000219120532A30C0F31EF4909581959F4F40
:101340000895FC018191861721F08823D9F7992708
:1013500008953197CF010895FB01DC0101900D92B2
:101360000020E1F70895FB01DC014150504048F0B6
:1013700001900D920020C9F701C01D9241505040CC
:10138000E0F708957AE0979F902D879F802D910D2B
:0813900011240895F894FFCF29
:00000001FF
