:100000000C9450000C946D000C946D000C946D00D9
:100010000C946D000C946D000C946D000C946D00AC
:100020000C946D000C946D000C946D000C946205A2
:100030000C946D000C946D000C946D000C946D008C
:100040000C946D000C946D000C946D000C946D007C
:100050000C946D00084AD73B3BCE016E84BCBFFDBB
:10006000C12F3D6C74319ABD56833DDA3D00C77F88
:1000700011BED9E4BB4C3E916BAAAABE0000008021
:100080003F05A84CCDB2D44EB93836A9020C50B9B0
:10009000918688083CA6AAAA2ABE000000803F00DC
:1000A00011241FBECFE5D4E0DEBFCDBF10E0A0E637
:1000B000B0E0E8E7F3E102C005900D92A839B1077E
:1000C000D9F721E0A8E9B0E001C01D92AF32B20734
:1000D000E1F70E9443020C94BA090C94000095B316
:1000E0009F7095BB95B3282F207F922B95BBA89826
:1000F000A998AA9AEFEFF3E23197F1F700C0000058
:10010000AA9895B39F7095BB95B38295807F892BF4
:1001100085BBA898A998AA9A8FEF93E20197F1F767
:1001200000C00000AA98089584B3876F84BB85B38C
:10013000807885BB089595B39F7095BB95B3282FA4
:10014000207F922B95BBA89AA998AA9AEFEFF3E289
:100150003197F1F700C00000AA9895B39F7095BB46
:1001600095B38295807F892B85BBA89AA998AA9A76
:100170008FEF93E20197F1F700C00000AA9808956D
:1001800083E397E00197F1F7A898A99880E385BBEE
:10019000AA9AEFEFF3E23197F1F700C00000AA98B6
:1001A000E3E3F7E03197F1F7A898A99885BBAA9AFD
:1001B000EFEFF3E23197F1F700C00000AA98E3E314
:1001C000F7E03197F1F7A898A99885BBAA9A8FEF25
:1001D00093E20197F1F700C00000AA98E3E3F7E08B
:1001E0003197F1F7A898A99880E285BBAA9A8FEF7A
:1001F00093E20197F1F700C00000AA98E3E3F7E06B
:100200003197F1F788E20E946F0081E00E946F0051
:1002100086E00E946F008EE00E946F0080E80E94DE
:100220006F00089580E80E946F000895CF93DF93D8
:10023000EC018881882331F021960E949B008991EE
:100240008111FBCFDF91CF910895823071F018F4C6
:10025000813031F00895833069F0843081F0089561
:100260008FE7860F0E946F0008958FEB860F0E9424
:100270006F00089583E9860F0E946F00089583ED53
:10028000860F0E946F000895EF92FF920F931F93C5
:10029000CF93DF93F82EE62E8A01E901552354F41B
:1002A0001195019511090E94250185E790E00E94B2
:1002B0001601E394FF2011F0E11003C00E94120127
:1002C00004C06E2D8F2D0E942501C530D10571F41B
:1002D000C80160E177E20E943C09CB01C09690938F
:1002E000A8008093A7000E949B0004C0C430D105E1
:1002F00009F098C0C80168EE73E00E943C09AB01A8
:100300007093AA006093A9009B01ADECBCEC0E9425
:1003100050099695879596958795969587959C0112
:10032000220F331F880F991F880F991F880F991F5D
:10033000820F931F9A01281B390BC901C096909315
:10034000B2008093B1000E949B00C80164E670E097
:100350000E943C09AB017093AA006093A9009B0125
:10036000ADECBCEC0E9450099695879596958795C3
:10037000969587959C01220F331F880F991F880F30
:10038000991F880F991F820F931F9A01281B390B01
:10039000C901C0969093AE008093AD000E949B006F
:1003A00004C0C230D10509F042C0C8016AE070E063
:1003B0000E943C09AB017093AA006093A9009B01C5
:1003C000ADECBCEC0E945009969587959695879563
:1003D000969587959C01220F331F880F991F880FD0
:1003E000991F880F991F820F931F9A01281B390BA1
:1003F000C901C0969093AC008093AB000E949B0013
:10040000C8016AE070E00E943C09C0969093B00079
:100410008093AF000E949B0026976CF085E40E94B9
:100420009B0009C0C330D10509F0BBCF8ECFC130CE
:10043000D10591F7E5CFDF91CF911F910F91FF90FB
:10044000EF900895CF93DF93EA010E942501888100
:10045000882331F021960E949B0089918111FBCF66
:10046000DF91CF9108950E941E040E949400089588
:10047000F8940E9433020E94C0000E94EB040E9484
:10048000580578940895CF93DF93CDB7DEB72897BA
:100490000FB6F894DEBF0FBECDBF0E9438028DECC0
:1004A0009CECACE4BFE38093D5009093D600A0937E
:1004B000D700B093D8001092CB001092CC001092CD
:1004C000CD001092CE0080E090E0A8E4B2E48093EA
:1004D000B3009093B400A093B500B093B60084EA43
:1004E00091E09093CA008093C90014EA01E00F2EB6
:1004F000F6EE3F2EF02D212C2FEF8FE191E02150D1
:1005000080409040E1F700C00000F8940E943F0452
:1005100078946091B9007091BA008091C500909173
:10052000C600681B790B072E000C880B990B0E94E4
:100530005A070E940F096B017C018091BF009091C6
:10054000C0002091B7003091B800821B930BBC0112
:10055000990F880B990B0E945A070E940F094B01B3
:100560005C01A5019401C701B6010E94CD050E945E
:10057000CF080E9422079B017093C4006093C300C0
:10058000643671050CF436C144C188859F81AD8104
:10059000BE818093D5009093D600A093D700B093EE
:1005A000D800203131050CF422C16091D300709144
:1005B000D4008091D1009091D200681B790B072E56
:1005C000000C880B990B0E945A0723EC35EF48E486
:1005D00050E40E94540820E030E044E353E40E94D9
:1005E000B0066B017C010E94AB064B015C01C701A8
:1005F000B6010E94C108A50194010E944C0623EA9D
:100600003CE445E652E40E9454082B013C0160930F
:10061000D9007093DA008093DB009093DC0020E037
:1006200030E048E452E40E94540820919C0030914C
:100630009D0040919E0050919F000E94CD054B016E
:100640005C0160939C0070939D0080939E0090934A
:100650009F002091A0003091A1004091A2005091F4
:10066000A300C301B2010E94CC0520E030E048E4C1
:1006700052E40E94B0066B017C0160939800709375
:10068000990080939A0090939B004092A000509212
:10069000A1006092A2007092A300A301920168855C
:1006A0007F818D819E810E9454082B013C01209105
:1006B000CB003091CC004091CD005091CE00C501CF
:1006C000B4010E9454089B01AC01C301B2010E9415
:1006D000CD054B015C012091B3003091B4004091F5
:1006E000B5005091B600C701B6010E9454089B01A5
:1006F000AC01C501B4010E94CD056B017C01609382
:10070000BB007093BC008093BD009093BE006981D4
:100710007A81660F771F072E000C880B990B0E94B9
:100720005A074B015C016091600070916100072ED7
:10073000000C880B990B0E945A079B01AC01C70162
:10074000B6010E9454082B013C0160916200709137
:100750006300660F771F072E000C880B990B0E9411
:100760005A0769837A838B839C83A3019201C50115
:10077000B4010E94CD0529813A814B815C810E94A0
:10078000B0060E9422076B017C017093C200609347
:10079000C100A3019201C501B4010E94CC052981C9
:1007A0003A814B815C810E94B0060E9422077093BF
:1007B000D0006093CF0024E030E0A60161E081E04A
:1007C0000E9444014091CF005091D00024E030E0DD
:1007D00069E081E00E9444016091CF007091D000F7
:1007E0008091C1009091C2000E94F90485CE0E94C0
:1007F0003B0482CE3092C9002092CA0039822A82FC
:10080000EDECE887FCECFF838CEC8D839EE39E830C
:10081000BCCE1093C9000093CA0019830A83EDEC83
:10082000E887FCECFF838CE48D839FE39E83ADCE51
:1008300098B3907F8F70982B98BB089587B38F6083
:1008400087BB88B3807F88BB81B3806381BB82B361
:10085000806382BB089586E00E941804089589E0B1
:100860000E941804089585E00E94180408958AE003
:100870000E941804089580E00E94180408959F9231
:10088000AF92BF92CF92DF92EF92FF920F931F939E
:10089000CF93DF93CDB7DEB7CE56D1090FB6F8941C
:1008A000DEBF0FBECDBF6DED70E0CE01895B9F4F07
:1008B0000E949C09912CCE01895B9F4F6C016FE2D5
:1008C00070E0C6010E9491095C01009749F17C012A
:1008D000EC18FD08292D30E08901000F111F220FAF
:1008E000331F220F331F220F331F020F131FA701C5
:1008F000B60181E090E08C0F9D1F800F911F0E9438
:10090000A3090E0D1F1DE1E0F0E0EC0FFD1FE00F4D
:10091000F11F1082939465019FEFC91AD90ACFCFB6
:10092000CE0101960E9473099093C8008093C7007E
:10093000CE010B960E9473099093B8008093B70084
:10094000CE0145960E9473099093C6008093C5001E
:10095000CE014F960E9473098C5192409C0122F463
:1009600022273327281B390B3093D4002093D30040
:10097000CE0189960E9473099093C0008093BF00B6
:10098000CE01C3960E9473099093BA008093B90078
:10099000CE01CD960E9473098C5192409C0122F4A5
:1009A00022273327281B390B3093D2002093D10004
:1009B000C259DF4F0FB6F894DEBF0FBECDBFDF9137
:1009C000CF911F910F91FF90EF90DF90CF90BF904C
:1009D000AF909F9008951EBC8FEF8DBD91E09CBDA0
:1009E0001BBC8ABD19BC88BD81EA8FBD8BE08EBD62
:1009F00008950F931F93CF93DF93EC018B019923FD
:100A000064F077230CF44BC00E942B0447E750E0BE
:100A100061E082E00E9422023FC01616170694F49D
:100A20000E943304CE01DD2324F4882799278C1BF0
:100A30009D0BEC01A8964FE750E061E082E00E9438
:100A400022022AC018161906ACF477239CF40E94DF
:100A50003704C801992324F488279927801B910B18
:100A60008C01085D1F4F47E850E061E082E00E9482
:100A7000220212C00E942F04DD231CF4D195C195DF
:100A8000D10911231CF41195019511094FE850E08B
:100A900061E082E00E942202CABD08BD04C01816AF
:100AA0001906ACF2E7CFDF91CF911F910F91089516
:100AB0001AB81BB886E880BD8FE289B910BC88E9F6
:100AC0008AB908951F920F920FB60F9211242F9397
:100AD0003F934F935F936F937F938F939F93AF93C6
:100AE000BF93EF93FF9380910601809305018CB132
:100AF0008093060167E071E08DED90E00E949C0913
:100B0000809105018C3361F480910601833241F4B8
:100B100081E08093A4001092A6001092A5002BC043
:100B200080910501833269F4809106018E3349F486
:100B30001092A40067E071E08DED90E00E949C09A6
:100B40001AC08091A4008130B1F4809106018332F3
:100B500091F0E091A500F091A60080910601E95F77
:100B6000FE4F80838091A5009091A60001969093FE
:100B7000A6008093A500FF91EF91BF91AF919F9147
:100B80008F917F916F915F914F913F912F910F9036
:100B90000FBE0F901F9018955058BB27AA270E9490
:100BA000E4050C94FE070E94C50738F00E94CC07AC
:100BB00020F039F49F3F19F426F40C949B070EF4AF
:100BC000E095E7FB0C949507E92F0E94230858F362
:100BD000BA17620773078407950720F079F4A6F522
:100BE0000C9445080EF4E0950B2EBA2FA02D0B01A6
:100BF000B90190010C01CA01A0011124FF27591B62
:100C000099F0593F50F4503E68F11A16F040A22F67
:100C1000232F342F4427585FF3CF469537952795D8
:100C2000A795F0405395C9F77EF41F16BA0B620BD7
:100C3000730B840BBAF09150A1F0FF0FBB1F661F1E
:100C4000771F881FC2F70EC0BA0F621F731F841F61
:100C500048F4879577956795B795F7959E3F08F087
:100C6000B0CF9395880F08F09927EE0F9795879549
:100C700008950E94C50760F080E891E009F49EEFB6
:100C80000E94CC0728F040E851E071F45EEF0CC000
:100C90000C949B070C944508E92FE0780E942308E8
:100CA00040F3092E052AB1F32617370748075907DD
:100CB00038F00E2E07F8E02569F0E025E0640AC060
:100CC000EF6307F8009407FADB01B9019D01DC012D
:100CD000CA01AD01EF930E94C7060E94FE070E9461
:100CE0007C065F91552339F02BED3FE049E450FD40
:100CF00049EC0C94CD050895DF93DD27B92FBF771C
:100D000040E85FE31616170648075B0718F4D92F6B
:100D10000E944C089F938F937F936F930E940F09BB
:100D2000E4E5F0E00E949E070E94FE072F913F91AC
:100D30004F915F910E946708DD2351F09058A2EA1D
:100D40002AED3FE049EC5FE3D0785D270E94E4059F
:100D5000DF910C94FE070E94D507E3950C940F08D1
:100D60000E94C4060C94FE070E94CC0758F00E9413
:100D7000C50740F029F45F3F29F00C949507511105
:100D80000C9446080C949B070E94230868F399234F
:100D9000B1F3552391F3951B550BBB27AA27621777
:100DA0007307840738F09F5F5F4F220F331F441F84
:100DB000AA1FA9F335D00E2E3AF0E0E832D09150B8
:100DC0005040E695001CCAF72BD0FE2F29D0660FA5
:100DD000771F881FBB1F261737074807AB07B0E8E8
:100DE00009F0BB0B802DBF01FF2793585F4F3AF0EE
:100DF0009E3F510578F00C9495070C9446085F3F90
:100E0000E4F3983ED4F3869577956795B795F79573
:100E10009F5FC9F7880F911D9695879597F908955B
:100E2000E1E0660F771F881FBB1F621773078407F7
:100E3000BA0720F0621B730B840BBA0BEE1F88F706
:100E4000E09508950E9429076894B1110C94460812
:100E500008950E942B0888F09F5798F0B92F992782
:100E6000B751B0F0E1F0660F771F881F991F1AF095
:100E7000BA95C9F714C0B13091F00E944508B1E0AD
:100E800008950C944508672F782F8827B85F39F0AC
:100E9000B93FCCF3869577956795B395D9F73EF42E
:100EA00090958095709561957F4F8F4F9F4F0895D6
:100EB000E89409C097FB3EF49095809570956195F4
:100EC0007F4F8F4F9F4F9923A9F0F92F96E9BB27AA
:100ED0009395F695879577956795B795F111F8CF26
:100EE000FAF4BB0F11F460FF1BC06F5F7F4F8F4F91
:100EF0009F4F16C0882311F096E911C0772321F087
:100F00009EE8872F762F05C0662371F096E8862F1E
:100F100070E060E02AF09A95660F771F881FDAF775
:100F2000880F9695879597F9089597F99F6780E8B8
:100F300070E060E008959FEF80EC0895DF93CF9319
:100F40001F930F93FF92EF92DF927B018C016894C5
:100F500006C0DA2EEF010E946708FE01E894A59111
:100F60002591359145915591A6F3EF010E94E40535
:100F7000FE019701A801DA9469F7DF90EF90FF90E6
:100F80000F911F91CF91DF91089500240A941616B6
:100F9000170618060906089500240A941216130667
:100FA0001406050608950C949B070E942B08D8F39D
:100FB000E894E0E0BB279F57F0F02AED3FE049ECD2
:100FC00006C0EE0FBB0F661F771F881F28F0B23ACE
:100FD00062077307840728F0B25A620B730B840B05
:100FE000E3959A9572F7803830F49A95BB0F661F97
:100FF000771F881FD2F790480C941509092E039487
:10100000000C11F4882352F0BB0F40F4BF2B11F4F5
:1010100060FF04C06F5F7F4F8F4F9F4F0895EF9326
:10102000E0FF07C0A2EA2AED3FE049EC5FEB0E9437
:10103000E4050E94FE070F90039401FC9058E1E83C
:10104000F0E00C94280957FD9058440F551F59F0B3
:101050005F3F71F04795880F97FB991F61F09F3FA5
:1010600079F087950895121613061406551FF2CFCE
:101070004695F1DF08C0161617061806991FF1CF1E
:1010800086957105610508940895E894BB27662745
:101090007727CB0197F908959B01AC0160E070E0E0
:1010A00080E89FE30C94B0060E9467080C94FE074A
:1010B0000E94C50738F00E94CC0720F0952311F05C
:1010C0000C9495070C949B0711240C9446080E94DD
:1010D000230870F3959FC1F3950F50E0551F629F51
:1010E000F001729FBB27F00DB11D639FAA27F00D81
:1010F000B11DAA1F649F6627B00DA11D661F829FA8
:101100002227B00DA11D621F739FB00DA11D621F8C
:10111000839FA00D611D221F749F3327A00D611DA9
:10112000231F849F600D211D822F762F6A2F11248B
:101130009F5750409AF0F1F088234AF0EE0FFF1FBE
:10114000BB1F661F771F881F91505040A9F79E3F15
:10115000510580F00C9495070C9446085F3FE4F32A
:10116000983ED4F3869577956795B795F795E7956B
:101170009F5FC1F7FE2B880F911D9695879597F974
:1011800008959F930E94D5070F9007FCEE5F0C9483
:101190000F0819F416F40C949B070C9413090E9481
:1011A0002B08B8F39923C9F3B6F39F57550B87FF64
:1011B0000E9421090024A0E640EA9001805856953B
:1011C000979528F4805C660F771F881F20F02617FC
:1011D0003707480730F4621B730B840B2029312931
:1011E0004A2BA69517940794202531254A2758F7AE
:1011F000660F771F881F20F026173707480730F43F
:10120000620B730B840B200D311D411DA09581F7DE
:10121000B901842F9158880F9695879508959B0161
:10122000AC010C9454089F3F31F0915020F4879505
:1012300077956795B795880F911D9695879597F93E
:10124000089591505040660F771F881FD2F7089578
:101250009F938F937F936F93FF93EF939B01AC01C9
:101260000E945408EF91FF910E949E072F913F9199
:101270004F915F910C94540897FB072E16F400943D
:1012800007D077FD09D00E945F0907FC05D03EF426
:10129000909581959F4F0895709561957F4F089522
:1012A000A29FB001B39FC001A39F700D811D1124A7
:1012B000911DB29F700D811D1124911D0895AA1BCF
:1012C000BB1B51E107C0AA1FBB1FA617B70710F031
:1012D000A61BB70B881F991F5A95A9F78095909563
:1012E000BC01CD010895FC0188279927E89421913C
:1012F0002032E9F3293010F02E30C8F32B3241F0C0
:101300002D3239F4689404C00E94B209820F911DF5
:10131000219120532A30C0F31EF4909581959F4F60
:101320000895FC018191861721F08823D9F7992728
:1013300008953197CF010895FB01DC0101900D92D2
:101340000020E1F70895FB01DC014150504048F0D6
:1013500001900D920020C9F701C01D9241505040EC
:10136000E0F708957AE0979F902D879F802D910D4B
:0813700011240895F894FFCF49
:101378000B000300202020202020202020202020D7
:1013880020202020002D00666F7277617264006C47
:1013980065667420202000726967687420200062E6
:0813A80061636B2020200000AE
:00000001FF
