:100000000C942A000C9447000C9447000C94470071
:100010000C9447000C9447000C9447000C94470044
:100020000C9447000C9447000C9447000C94B604C1
:100030000C9447000C9447000C9447000C94470024
:100040000C9447000C9447000C9447000C94470014
:100050000C94470011241FBECFE5D4E0DEBFCDBF16
:1000600010E0A0E6B0E0EAE6FFE002C005900D92E5
:10007000AA38B107D9F721E0AAE8B0E001C01D9283
:10008000A638B207E1F70E943F020C94B3070C9424
:10009000000095B39F7095BB95B3282F207F922BBE
:1000A00095BBA898A998AA9AEFEFF3E23197F1F7D8
:1000B00000C00000AA9895B39F7095BB95B3829538
:1000C000807F892B85BBA898A998AA9A8FEF93E285
:1000D0000197F1F700C00000AA98089584B3876FD4
:1000E00084BB85B3807885BB089595B39F7095BB1D
:1000F00095B3282F207F922B95BBA89AA998AA9AEE
:10010000EFEFF3E23197F1F700C00000AA9895B342
:100110009F7095BB95B38295807F892B85BBA89AEC
:10012000A998AA9A8FEF93E20197F1F700C0000017
:10013000AA98089583E397E00197F1F7A898A99802
:1001400080E385BBAA9AEFEFF3E23197F1F700C0A5
:100150000000AA98E3E3F7E03197F1F7A898A9988F
:1001600085BBAA9AEFEFF3E23197F1F700C00000E8
:10017000AA98E3E3F7E03197F1F7A898A99885BB2F
:10018000AA9A8FEF93E20197F1F700C00000AA98B6
:10019000E3E3F7E03197F1F7A898A99880E285BBEF
:1001A000AA9A8FEF93E20197F1F700C00000AA9896
:1001B000E3E3F7E03197F1F788E20E94490081E03C
:1001C0000E94490086E00E9449008EE00E9449009A
:1001D00080E80E944900089580E80E94490008953F
:1001E000CF93DF93EC018881882331F021960E9420
:1001F000750089918111FBCFDF91CF9108958230F5
:1002000071F018F4813031F00895833069F0843052
:1002100081F008958FE7860F0E94490008958FEBC3
:10022000860F0E944900089583E9860F0E944900C5
:10023000089583ED860F0E94490008950F931F9340
:10024000CF93DF938A01E901882311F0611103C084
:100250000E94EC0002C00E94FF00C530D105C9F425
:100260009801329522952F7023273F702327A7E40A
:10027000B3E00E945D07969587959695879596952C
:100280008795C09690938E0080938D000E94750094
:1002900004C0C430D10509F0C3C098013695279534
:1002A0003695279536952795A5ECB0E20E945D0717
:1002B000AC01529542954F7045275F70452750938A
:1002C000900040938F009A01ADECBCEC0E945D075A
:1002D0009695879596958795969587959C01220F7B
:1002E000331F880F991F880F991F880F991F820F3E
:1002F000931F9A01281B390BC901C096909398004F
:10030000809397000E947500980136952795369541
:100310002795ABE7B4E10E945D07AC015695479580
:100320005093900040938F009A01ADECBCEC0E947A
:100330005D079695879596958795969587959C01E7
:10034000220F331F880F991F880F991F880F991F3D
:10035000820F931F9A01281B390BC901C0969093F5
:100360009400809393000E94750004C0C230D105B0
:1003700009F05BC09801ADECBCEC0E945D07AC01DC
:1003800056954795569547955695479550939000A5
:1003900040938F009A010E945D07969587959695E8
:1003A0008795969587959C01220F331F880F991F7B
:1003B000880F991F880F991F820F931F9A01281B7E
:1003C000390BC901C09690939200809391000E94CE
:1003D00075009801ADECBCEC0E945D079695879581
:1003E00096958795969587959C01220F331F880FC8
:1003F000991F880F991F880F991F820F931F9801CB
:10040000281B390BC901C0969093960080939500E4
:100410000E94750026976CF085E40E94750009C063
:10042000C330D10509F0A2CF6FCFC130D10591F70C
:10043000D0CFDF91CF911F910F91089561E081E0BE
:100440000E94FF0080E690E00E94F00061E082E000
:100450000E94FF0080E690E00E94F00008950E9454
:10046000D7030E946E000895F8940E942F020E9404
:100470009A000E9499040E94AC04789408950E9406
:1004800034028DEC9CECACECBDE380931B019093AB
:100490001C01A0931D01B0931E0184E690E090938F
:1004A000100180930F0183E090E0909316018093F8
:1004B00015018BE090E0909312018093110110E000
:1004C00000E0C8E6D1E0F8940E94EC0378946091D3
:1004D0009B0070919C0080910B0190910C01681B16
:1004E000790B072E000C880B990B0E9405060E94C1
:1004F00044076B017C018091A1009091A2002091A2
:10050000990030919A00821B930BBC01990F880BC4
:10051000990B0E9405060E9444074B015C01A5014E
:100520009401C701B6010E94EF040E9404070E94D3
:10053000CD0570930A016093090123E030E0AB011F
:1005400061E081E00E941E012091190130911A01A1
:100550008091170190911801281B390BC90199232B
:1005600024F488279927821B930BBC01853B9105B6
:10057000A0F0855B9109843B910528F4CE01861B90
:10058000970BBC010AC00E941E020E94EC0081E78A
:1005900090E00E94F000612F702F072E000C880B56
:1005A000990B0E94050620911B0130911C0140917E
:1005B0001D0150911E010E9491066B017C01609308
:1005C0009D0070939E0080939F009093A000809167
:1005D000090190910A01C3970CF4D8C080911901C8
:1005E00090911A012091170130911801821B930BF1
:1005F0002AF09093200180931F0106C088599E4FD6
:100600009093200180931F0180911F019091200100
:100610009C01245B3109253B310508F055C06091F0
:100620000F0170911001660F771F072E000C880BC9
:10063000990B0E9405064B015C01609111017091BC
:100640001201072E000C880B990B0E9405069B01D6
:10065000AC01C701B6010E9491062B013C016091DB
:10066000150170911601660F771F072E000C880B7D
:10067000990B0E9405066B017C01A3019201C50143
:10068000B4010E94EE04A70196010E945B050E943E
:10069000CD05362E6093070170930801A3019201E6
:1006A000C501B4010E94EF04A70196010E945B05F9
:1006B0000E94CD056093130170931401832D0E9455
:1006C000A7040E94E403FFCE843B910508F055C0C7
:1006D00060910F0170911001660F771F072E000CBB
:1006E000880B990B0E9405064B015C01609111017A
:1006F00070911201072E000C880B990B0E940506C1
:100700009B01AC01C701B6010E9491062B013C017F
:100710006091150170911601660F771F072E000C6E
:10072000880B990B0E9405066B017C01A3019201C5
:10073000C501B4010E94EF04A70196010E945B0568
:100740000E94CD05362E6093070170930801A30126
:100750009201C501B4010E94EE04A70196010E9416
:100760005B050E94CD056093130170931401832DE6
:100770000E94A7040E94E403A6CE0E941E020E94CB
:10078000EC0089E790E00E94F0009DCE0E94E80313
:100790000E941E020E94EC0081E890E00E94F0009E
:1007A00092CE98B3907F8F70982B98BB089587B3A3
:1007B0008F6087BB88B3807F88BB81B3806381BB38
:1007C00082B3806382BB089586E00E94D1030895BE
:1007D00080E00E94D10308959F92AF92BF92CF9282
:1007E000DF92EF92FF920F931F93CF93DF93CDB7DA
:1007F000DEB7C654D1090FB6F894DEBF0FBECDBF29
:1008000061E271E083EA90E00E949507912C0F2E3F
:10081000F3EACF2EF0E0DF2EF02D6FE270E0C6019C
:100820000E948A075C01009749F17C01EC18FD08E1
:10083000292D30E08901000F111F220F331F220FD5
:10084000331F220F331F020F131FA701B60181E0D0
:1008500090E08C0F9D1F800F911F0E949C070E0D32
:100860001F1DE1E0F0E0EC0FFD1FE00FF11F108213
:10087000939465018FEFC81AD80ACFCFCE010196A5
:100880000E946C0790930E0180930D01CE010B9690
:100890000E946C0790939A0080939900CE01459630
:1008A0000E946C0790930C0180930B01CE014F9630
:1008B0000E946C078C5192409C0122F4222733271E
:1008C000281B390B30931A0120931901CE01899608
:1008D0000E946C079093A2008093A100CE01C39662
:1008E0000E946C0790939C0080939B00CE01CD9654
:1008F0000E946C078C5192409C0122F422273327DE
:10090000281B390B3093180120931701CA5BDF4F66
:100910000FB6F894DEBF0FBECDBFDF91CF911F9110
:100920000F91FF90EF90DF90CF90BF90AF909F908E
:1009300008951EBC8FEF8DBD91E09CBD1BBC8ABD90
:1009400019BC88BD81EA8FBD8DE08EBD08951BBCAA
:1009500019BC8ABD68BD08951AB81BB886E880BD69
:100960008FE289B910BC88E98AB908951F920F9265
:100970000FB60F9211248F939F93EF93FF938CB137
:1009800080938501809185018E3229F410928B002D
:1009900010928A001AC0E0918A00F0918B00809139
:1009A0008501EF5DFE4F808380918A0090918B00DE
:1009B000019690938B0080938A00809185018CB979
:1009C00080918C008F5F80938C00FF91EF919F91BD
:1009D0008F910F900FBE0F901F9018955058BB2706
:1009E000AA270E9406050C9457060E94490638F073
:1009F0000E94500620F039F49F3F19F426F40C941D
:100A000046060EF4E095E7FB0C944006E92F0E94A1
:100A1000680658F3BA17620773078407950720F032
:100A200079F4A6F50C948A060EF4E0950B2EBA2FF5
:100A3000A02D0B01B90190010C01CA01A0011124E4
:100A4000FF27591B99F0593F50F4503E68F11A1690
:100A5000F040A22F232F342F4427585FF3CF469521
:100A600037952795A795F0405395C9F77EF41F1643
:100A7000BA0B620B730B840BBAF09150A1F0FF0F0D
:100A8000BB1F661F771F881FC2F70EC0BA0F621FF9
:100A9000731F841F48F4879577956795B795F795E9
:100AA0009E3F08F0B0CF9395880F08F09927EE0F7E
:100AB0009795879508950E946F050C9457060E949C
:100AC000500658F00E94490640F029F45F3F29F093
:100AD0000C94400651110C948B060C9446060E940F
:100AE000680668F39923B1F3552391F3951B550BD1
:100AF000BB27AA2762177307840738F09F5F5F4FF1
:100B0000220F331F441FAA1FA9F335D00E2E3AF02F
:100B1000E0E832D091505040E695001CCAF72BD047
:100B2000FE2F29D0660F771F881FBB1F2617370798
:100B30004807AB07B0E809F0BB0B802DBF01FF27CA
:100B400093585F4F3AF09E3F510578F00C94400661
:100B50000C948B065F3FE4F3983ED4F3869577952B
:100B60006795B795F7959F5FC9F7880F911D969583
:100B7000879597F90895E1E0660F771F881FBB1FDF
:100B8000621773078407BA0720F0621B730B840B8C
:100B9000BA0BEE1F88F7E09508950E94D40568947B
:100BA000B1110C948B0608950E94700688F09F572F
:100BB00098F0B92F9927B751B0F0E1F0660F771F81
:100BC000881F991F1AF0BA95C9F714C0B13091F077
:100BD0000E948A06B1E008950C948A06672F782F48
:100BE0008827B85F39F0B93FCCF38695779567953C
:100BF000B395D9F73EF490958095709561957F4FA8
:100C00008F4F9F4F0895E89409C097FB3EF490954D
:100C10008095709561957F4F8F4F9F4F9923A9F0D5
:100C2000F92F96E9BB279395F69587957795679564
:100C3000B795F111F8CFFAF4BB0F11F460FF1BC0A8
:100C40006F5F7F4F8F4F9F4F16C0882311F096E93B
:100C500011C0772321F09EE8872F762F05C06623E9
:100C600071F096E8862F70E060E02AF09A95660FA2
:100C7000771F881FDAF7880F9695879597F908955B
:100C800097F99F6780E870E060E008959FEF80EC3F
:100C9000089500240A9416161706180609060895E2
:100CA00000240A9412161306140605060895092E48
:100CB0000394000C11F4882352F0BB0F40F4BF2BB7
:100CC00011F460FF04C06F5F7F4F8F4F9F4F0895F7
:100CD00057FD9058440F551F59F05F3F71F04795ED
:100CE000880F97FB991F61F09F3F79F087950895D2
:100CF000121613061406551FF2CF4695F1DF08C0F1
:100D0000161617061806991FF1CF8695710561050D
:100D100008940895E894BB2766277727CB0197F9B5
:100D200008950E94A4060C9457060E94490638F0C4
:100D30000E94500620F0952311F00C9440060C946C
:100D4000460611240C948B060E94680670F3959F4A
:100D5000C1F3950F50E0551F629FF001729FBB27B2
:100D6000F00DB11D639FAA27F00DB11DAA1F649F4E
:100D70006627B00DA11D661F829F2227B00DA11D01
:100D8000621F739FB00DA11D621F839FA00D611D87
:100D9000221F749F3327A00D611D231F849F600DA8
:100DA000211D822F762F6A2F11249F5750409AF0D1
:100DB000F1F088234AF0EE0FFF1FBB1F661F771F5D
:100DC000881F91505040A9F79E3F510580F00C9428
:100DD00040060C948B065F3FE4F3983ED4F386956F
:100DE00077956795B795F795E7959F5FC1F7FE2BC8
:100DF000880F911D9695879597F9089519F416F423
:100E00000C9446060C9448070E947006B8F3992388
:100E1000C9F3B6F39F57550B87FF0E94560700246E
:100E2000A0E640EA900180585695979528F4805C9A
:100E3000660F771F881F20F026173707480730F402
:100E4000621B730B840B202931294A2BA69517941A
:100E50000794202531254A2758F7660F771F881FEA
:100E600020F026173707480730F4620B730B840B0A
:100E7000200D311D411DA09581F7B901842F915896
:100E8000880F9695879508959B01AC010C94910667
:100E90009F3F31F0915020F4879577956795B795EE
:100EA000880F911D9695879597F908959150504018
:100EB000660F771F881FD2F70895A29FB001B39FD6
:100EC000C001A39F700D811D1124911DB29F700D53
:100ED000811D1124911D0895FC0188279927E8940C
:100EE00021912032E9F3293010F02E30C8F32B3253
:100EF00041F02D3239F4689404C00E94AB07820F90
:100F0000911D219120532A30C0F31EF490958195B4
:100F10009F4F0895FC018191861721F08823D9F70E
:100F2000992708953197CF010895FB01DC010190C5
:100F30000D920020E1F70895FB01DC014150504083
:100F400048F001900D920020C9F701C01D92415058
:100F50005040E0F708957AE0979F902D879F802D6D
:0A0F6000910D11240895F894FFCFBD
:100F6A002020202020202020202020202020202077
:100F7A00004572726F722031004572726F722033AF
:0A0F8A000053746F7070656400007E
:00000001FF
