:100000000C942A000C9411010C9436010C944700B6
:100010000C9447000C9447000C9447000C94470044
:100020000C9447000C9447000C9447000C947F02FA
:100030000C9447000C9447000C9447000C94470024
:100040000C9447000C9447000C9447000C94470014
:100050000C94470011241FBECFE5D4E0DEBFCDBF16
:1000600010E0A0E6B0E0EEE5F8E002C005900D92E9
:10007000A036B107D9F721E0A0E6B0E001C01D929B
:10008000A234B207E1F70E94E1000C942D040C9415
:10009000000095B39F7095BB95B3282F207F922BBE
:1000A00095BBA898A998AA9AEFEFF3E23197F1F7D8
:1000B00000C00000AA9895B39F7095BB95B3829538
:1000C000807F892B85BBA898A998AA9A8FEF93E285
:1000D0000197F1F700C00000AA98089584B3876FD4
:1000E00084BB85B3807885BB089583E397E001974F
:1000F000F1F7A898A99880E385BBAA9AEFEFF3E2FD
:100100003197F1F700C00000AA98E3E3F7E03197D8
:10011000F1F7A898A99885BBAA9AEFEFF3E2319777
:10012000F1F700C00000AA98E3E3F7E03197F1F798
:10013000A898A99885BBAA9A8FEF93E20197F1F747
:1001400000C00000AA98E3E3F7E03197F1F7A89820
:10015000A99880E285BBAA9A8FEF93E20197F1F705
:1001600000C00000AA98E3E3F7E03197F1F788E2D6
:100170000E94490081E00E94490086E00E944900F7
:100180008EE00E94490080E80E94490008950E9484
:100190005B010E946E000E945B010E9470010E9440
:1001A00073010895F8940E94C7000E9475000E9490
:1001B00062020E9475020E9476010E947D0178947D
:1001C00008950E94D2006FEF8FEF0E9470020E948C
:1001D000C101C091D900D091DA008091DB009091EB
:1001E000DC00C81BD90B1C161D061CF4CE010E9496
:1001F000AB01DD2334F4882799278C1B9D0B0E94CB
:10020000B6012FEF8FE796E1215080409040E1F753
:1002100000C00000DCCF98B3907F8F70982B98BB04
:1002200008951F920F920FB60F9211248F939F93F0
:10023000AF93BF938091600090916100A0916200A4
:10024000B09163000196A11DB11D80936000909351
:100250006100A0936200B0936300BF91AF919F9142
:100260008F910F900FBE0F901F9018951F920F92B5
:100270000FB60F9211248F939F93AF93BF938091EA
:10028000640090916500A0916600B09167000196AE
:10029000A11DB11D8093640090936500A09366003A
:1002A000B0936700BF91AF919F918F910F900FBE58
:1002B0000F901F90189587B38F6087BB88B3807F9E
:1002C00088BB81B3806381BB82B3806382BB0895A6
:1002D00085E00E940B0108958AE00E940B010895B9
:1002E0008B98939A08958A98929A089585B7886012
:1002F00085BF8BB780688BBF089585B7826085BF47
:100300008BB780648BBF089580E00E940B01089535
:1003100010926000109261001092620010926300CF
:1003200010926400109265001092660010926700AF
:10033000BC0180E090E00E9458032AE939E94DE4CD
:1003400051E40E94B7020E942903672B09F0FFCFF6
:100350000E9484010895CF93DF93EC010E9468010D
:10036000CE010E948801DF91CF910895CF93DF9352
:10037000EC010E946C01CE010E948801DF91CF91B7
:1003800008959F92AF92BF92CF92DF92EF92FF9229
:100390000F931F93CF93DF93CDB7DEB7C654D10928
:1003A0000FB6F894DEBF0FBECDBF6DED70E081E7F4
:1003B00090E00E940F04912C0F2EF1E7CF2EF0E079
:1003C000DF2EF02D6FE270E0C6010E9404045C0194
:1003D000009749F17C01EC18FD08292D30E08901D6
:1003E000000F111F220F331F220F331F220F331F45
:1003F000020F131FA701B60181E090E08C0F9D1F33
:10040000800F911F0E9416040E0D1F1DE1E0F0E009
:10041000EC0FFD1FE00FF11F1082939465018FEF29
:10042000C81AD80ACFCFCE0101960E94E603909356
:10043000D8008093D700CE010B960E94E6039093DC
:100440006C0080936B00CE0145960E94E60390936A
:10045000D6008093D500CE014F960E94E603845BC0
:1004600091099093DC008093DB00CE0189960E9475
:10047000E6039093700080936F00CE01C3960E94B4
:10048000E60390936E0080936D00CE01CD960E949E
:10049000E603845B91099093DA008093D900CA5BEC
:1004A000DF4F0FB6F894DEBF0FBECDBFDF91CF9107
:1004B0001F910F91FF90EF90DF90CF90BF90AF9082
:1004C0009F9008951EBC8FEF8DBD91E09CBD1BBC1D
:1004D0008ABD19BC88BD81EA8FBD8DE08EBD0895AF
:1004E0001BBC19BC8ABD88BD08951AB81BB886E824
:1004F00080BD8FE289B910BC88E98AB908951F923E
:100500000F920FB60F9211248F939F93EF93FF9347
:100510008CB180934101809141018E3229F4109277
:100520006900109268001AC0E0916800F0916900BB
:1005300080914101E352FF4F808380916800909148
:100540006900019690936900809368008091410151
:100550008CB980916A008F5F80936A00FF91EF9160
:100560009F918F910F900FBE0F901F9018950E9432
:10057000CB020C94AC030E94A50358F00E949E038A
:1005800040F029F45F3F29F00C94950351110C942D
:10059000E0030C949B030E94BD0368F39923B1F31D
:1005A000552391F3951B550BBB27AA276217730799
:1005B000840738F09F5F5F4F220F331F441FAA1F2D
:1005C000A9F335D00E2E3AF0E0E832D091505040E9
:1005D000E695001CCAF72BD0FE2F29D0660F771F97
:1005E000881FBB1F261737074807AB07B0E809F07D
:1005F000BB0B802DBF01FF2793585F4F3AF09E3F02
:10060000510578F00C9495030C94E0035F3FE4F3FC
:10061000983ED4F3869577956795B795F7959F5F44
:10062000C9F7880F911D9695879597F90895E1E090
:10063000660F771F881FBB1F621773078407BA07EF
:1006400020F0621B730B840BBA0BEE1F88F7E0954A
:1006500008950E94C50388F09F5798F0B92F9927F5
:10066000B751B0F0E1F0660F771F881F991F1AF09D
:10067000BA95C9F714C0B13091F00E94DF03B1E020
:1006800008950C94DF03672F782F8827B85F39F01F
:10069000B93FCCF3869577956795B395D9F73EF436
:1006A00090958095709561957F4F8F4F9F4F0895DE
:1006B000E89409C097FB3EF49095809570956195FC
:1006C0007F4F8F4F9F4F9923A9F0F92F96E9BB27B2
:1006D0009395F695879577956795B795F111F8CF2E
:1006E000FAF4BB0F11F460FF1BC06F5F7F4F8F4F99
:1006F0009F4F16C0882311F096E911C0772321F08F
:100700009EE8872F762F05C0662371F096E8862F26
:1007100070E060E02AF09A95660F771F881FDAF77D
:10072000880F9695879597F9089597F99F6780E8C0
:1007300070E060E008959FEF80EC089500240A9433
:100740001616170618060906089500240A941216AC
:100750001306140605060895092E0394000C11F4DF
:10076000882352F0BB0F40F4BF2B11F460FF04C08C
:100770006F5F7F4F8F4F9F4F089557FD9058440FE5
:10078000551F59F05F3F71F04795880F97FB991FF0
:1007900061F09F3F79F087950895121613061406AD
:1007A000551FF2CF4695F1DF08C01616170618063A
:1007B000991FF1CF86957105610508940895E89415
:1007C000BB2766277727CB0197F90895FC01882777
:1007D0009927E89421912032E9F3293010F02E3046
:1007E000C8F32B3241F02D3239F4689404C00E94D2
:1007F0002504820F911D219120532A30C0F31EF44D
:10080000909581959F4F0895FC018191861721F065
:100810008823D9F7992708953197CF010895FB01CF
:10082000DC0101900D920020E1F70895FB01DC014D
:100830004150504048F001900D920020C9F701C08E
:100840001D9241505040E0F708957AE0979F902D17
:0E085000879F802D910D11240895F894FFCFFD
:00000001FF
