S00C0000415652312E73726563FE
S11300000C9450000C946D000C946D000C946D00D5
S11300100C946D000C946D000C946D000C946D00A8
S11300200C946D000C946D000C946D000C945503AD
S11300300C946D000C946D000C946D000C946D0088
S11300400C946D000C946D000C946D000C946D0078
S11300500C946D00084AD73B3BCE016E84BCBFFDB7
S1130060C12F3D6C74319ABD56833DDA3D00C77F84
S113007011BED9E4BB4C3E916BAAAABE000000801D
S11300803F05A84CCDB2D44EB93836A9020C50B9AC
S1130090918688083CA6AAAA2ABE000000803F00D8
S11300A011241FBECFE5D4E0DEBFCDBF10E0A0E633
S11300B0B0E0E8E1FFE002C005900D92A236B1077E
S11300C0D9F721E0A2E6B0E001C01D92A435B20741
S11300D0E1F70E94FD000C948A070C94000095B38C
S11300E09F7095BB95B3282F207F922B95BBA89822
S11300F0A998AA9AEFEFF3E23197F1F700C0000054
S1130100AA9895B39F7095BB95B38295807F892BF0
S113011085BBA898A998AA9A8FEF93E20197F1F763
S113012000C00000AA98089584B3876F84BB85B388
S1130130807885BB089583E397E00197F1F7A89849
S1130140A99880E385BBAA9AEFEFF3E23197F1F720
S113015000C00000AA98E3E3F7E03197F1F7A8980C
S1130160A99885BBAA9AEFEFF3E23197F1F700C0A3
S11301700000AA98E3E3F7E03197F1F7A898A9986B
S113018085BBAA9A8FEF93E20197F1F700C00000B4
S1130190AA98E3E3F7E03197F1F7A898A99880E2E9
S11301A085BBAA9A8FEF93E20197F1F700C0000094
S11301B0AA98E3E3F7E03197F1F788E20E946F0031
S11301C081E00E946F0086E00E946F008EE00E9432
S11301D06F0080E80E946F0008950E940B020E9445
S11301E094000895F8940E94ED000E949B000E94E0
S11301F038030E944B0378940895CF93DF9300D083
S113020000D0CDB7DEB70E94F2008DEC9CECACECD4
S1130210BDE38093850090938600A0938700B093FC
S1130220880084E690E090937A008093790083E0DC
S113023090E09093800080937F008BE090E0909317
S11302407C0080937B00F8940E9420027894609153
S1130250690070916A008091750090917600681B26
S1130260790B072E000C880B990B0E9461050E94E4
S113027016076B017C0180916F00909170002091B2
S1130280670030916800821B930BBC01990F880BA7
S1130290990B0E9461050E9416074B015C01A501A0
S11302A09401C701B6010E94D4030E94D6060E949D
S11302B029057B017093740060937300609183003F
S11302C0709184008091810090918200681B790B69
S11302D0072E000C880B990B0E94610523EC35EF67
S11302E048E450E40E945B0620E030E044E353E439
S11302F00E94B7044B015C010E94B2042B013C0133
S1130300C501B4010E94C806A30192010E945304CE
S113031023EA3CE445E652E40E945B062091850012
S11303203091860040918700509188000E945B06BE
S11303304B015C0160936B0070936C0080936D00C3
S113034090936E0083E3E816F1040CF45BC0809193
S1130350790090917A00880F991FBC01990F880B3E
S1130360990B0E9461056B017C0160917B00709187
S11303707C00072E000C880B990B0E9461059B01E1
S1130380AC01C501B4010E945B064B015C01809184
S11303907F0090918000880F991FBC01990F880BF2
S11303A0990B0E94610569837A838B839C83A501E1
S11303B09401C701B6010E94D40329813A814B817B
S11303C05C810E94B7040E942905762E6093710017
S11303D070937200A5019401C701B6010E94D30372
S11303E029813A814B815C810E94B7040E942905CE
S11303F060937D0070937E00872D0E9446030E94C7
S1130400180221CF0E941C021ECF98B3907F8F70D8
S1130410982B98BB089587B38F6087BB88B3807F80
S113042088BB81B3806381BB82B3806382BB089540
S113043086E00E940502089580E00E940502089566
S11304409F92AF92BF92CF92DF92EF92FF920F935F
S11304501F93CF93DF93CDB7DEB7CA5AD1090FB636
S1130460F894DEBF0FBECDBF6BE870E0CE01895BB0
S11304709F4F0E946C07912CCE01895B9F4F6C01AA
S11304806FE270E0C6010E9461075C01009749F1C8
S11304907C01EC18FD08292D30E08901000F111FA3
S11304A0220F331F220F331F220F331F020F131F7C
S11304B0A701B60181E090E08C0F9D1F800F911F72
S11304C00E9473070E0D1F1DE1E0F0E0EC0FFD1F0D
S11304D0E00FF11F1082939465019FEFC91AD90AA6
S11304E0CFCFCE0101960E9443079093780080936A
S11304F0770020916000309161008217930709F022
S113050040C0CE010B960E944307909368008093ED
S11305106700CE0145960E9443079093760080932E
S11305207500CE014F960E9443078C5192409C0166
S113053022F422273327281B390B3093840020937D
S11305408300CE0189960E944307909370008093A4
S11305506F00CE01C3960E94430790936A00809374
S11305606900CE01CD960E9443078C5192409C01B4
S113057022F422273327281B390B3093820020933F
S11305808100C655DF4F0FB6F894DEBF0FBECDBF56
S1130590DF91CF911F910F91FF90EF90DF90CF905B
S11305A0BF90AF909F9008959F92AF92BF92CF92C9
S11305B0DF92EF92FF920F931F93CF93DF93CDB708
S11305C0DEB72A970FB6F894DEBF0FBECDBF5C012D
S11305D0912C6FE270E0C5010E9461076C010097E5
S11305E029F18C010A191B09292D30E07901EE0C3F
S11305F0FF1CEE0CFF1CE20EF31EA801B50181E006
S113060090E08C0F9D1F8E0D9F1D0E9473070E0D91
S11306101F1DE1E0F0E0EC0FFD1FE00FF11F108261
S1130620939456018FEFA81AB80AD3CFCE0101963E
S11306300E94430721E030E0409160005091610046
S11306408417950711F020E030E0C9012A960FB60F
S1130650F894DEBF0FBECDBFDF91CF911F910F91F4
S1130660FF90EF90DF90CF90BF90AF909F90089550
S11306701EBC8FEF8DBD91E09CBD1BBC8ABD19BC17
S113068088BD81EA8FBD8DE08EBD08951BBC19BC69
S11306908ABD68BD08951AB81BB886E880BD8FE28C
S11306A089B910BC88E98AB908951F920F920FB6D0
S11306B00F9211242F933F934F935F936F937F93E4
S11306C08F939F93AF93BF93EF93FF938CB18093DA
S11306D0EF008091EF008E3261F410926600109268
S11306E06500109264001092630081E080936200C0
S11306F023C0809162008130F9F4E0916500F091AB
S113070066008091EF00E051FF4F80838091650087
S113071090916600019690936600809365008091A5
S1130720EF008F3249F48091630090916400019648
S113073090936400809363008091630090916400BF
S1130740019731F480EF90E00E94D402809362001C
S113075080916300909164000797A1F480916200F6
S1130760813081F41092660010926500109264004A
S1130770109263001092620060EF70E08BE890E0EA
S11307800E946C07FF91EF91BF91AF919F918F9160
S11307907F916F915F914F913F912F910F900FBE79
S11307A00F901F9018955058BB27AA270E94EB035F
S11307B00C9405060E94CC0538F00E94D30520F065
S11307C039F49F3F19F426F40C94A2050EF4E09535
S11307D0E7FB0C949C05E92F0E942A0658F3BA17EC
S11307E0620773078407950720F079F4A6F50C9443
S11307F04C060EF4E0950B2EBA2FA02D0B01B90177
S113080090010C01CA01A0011124FF27591B99F082
S1130810593F50F4503E68F11A16F040A22F232F8E
S1130820342F4427585FF3CF469537952795A795DE
S1130830F0405395C9F77EF41F16BA0B620B730B85
S1130840840BBAF09150A1F0FF0FBB1F661F771FF6
S1130850881FC2F70EC0BA0F621F731F841F48F4AB
S1130860879577956795B795F7959E3F08F0B0CF34
S11308709395880F08F09927EE0F9795879508951B
S11308800E94CC0560F080E891E009F49EEF0E949C
S1130890D30528F040E851E071F45EEF0CC00C94ED
S11308A0A2050C944C06E92FE0780E942A0640F336
S11308B0092E052AB1F3261737074807590738F0D8
S11308C00E2E07F8E02569F0E025E0640AC0EF6326
S11308D007F8009407FADB01B9019D01DC01CA01A4
S11308E0AD01EF930E94CE040E9405060E9483048A
S11308F05F91552339F02BED3FE049E450FD49EC7D
S11309000C94D4030895DF93DD27B92FBF7740E813
S11309105FE31616170648075B0718F4D92F0E94E1
S113092053069F938F937F936F930E941607E4E57A
S1130930F0E00E94A5050E9405062F913F914F917A
S11309405F910E946E06DD2351F09058A2EA2AEDD1
S11309503FE049EC5FE3D0785D270E94EB03DF9131
S11309600C9405060E94DC05E3950C9416060E947F
S1130970CB040C9405060E94D30558F00E94CC05C4
S113098040F029F45F3F29F00C949C0551110C941C
S11309904D060C94A2050E942A0668F39923B1F32C
S11309A0552391F3951B550BBB27AA276217730791
S11309B0840738F09F5F5F4F220F331F441FAA1F25
S11309C0A9F335D00E2E3AF0E0E832D091505040E1
S11309D0E695001CCAF72BD0FE2F29D0660F771F8F
S11309E0881FBB1F261737074807AB07B0E809F075
S11309F0BB0B802DBF01FF2793585F4F3AF09E3FFA
S1130A00510578F00C949C050C944D065F3FE4F37B
S1130A10983ED4F3869577956795B795F7959F5F3C
S1130A20C9F7880F911D9695879597F90895E1E088
S1130A30660F771F881FBB1F621773078407BA07E7
S1130A4020F0621B730B840BBA0BEE1F88F7E09542
S1130A5008950E9430056894B1110C944D060895D0
S1130A600E94320688F09F5798F0B92F9927B75102
S1130A70B0F0E1F0660F771F881F991F1AF0BA953E
S1130A80C9F714C0B13091F00E944C06B1E008954A
S1130A900C944C06672F782F8827B85F39F0B93F3C
S1130AA0CCF3869577956795B395D9F73EF49095F1
S1130AB08095709561957F4F8F4F9F4F0895E8946F
S1130AC009C097FB3EF490958095709561957F4F92
S1130AD08F4F9F4F9923A9F0F92F96E9BB27939540
S1130AE0F695879577956795B795F111F8CFFAF450
S1130AF0BB0F11F460FF1BC06F5F7F4F8F4F9F4F81
S1130B0016C0882311F096E911C0772321F09EE8DE
S1130B10872F762F05C0662371F096E8862F70E044
S1130B2060E02AF09A95660F771F881FDAF7880F1E
S1130B309695879597F9089597F99F6780E870E0EF
S1130B4060E008959FEF80EC0895DF93CF931F93A7
S1130B500F93FF92EF92DF927B018C01689406C0A1
S1130B60DA2EEF010E946E06FE01E894A59125910C
S1130B70359145915591A6F3EF010E94EB03FE01D7
S1130B809701A801DA9469F7DF90EF90FF900F9135
S1130B901F91CF91DF91089500240A941616170629
S1130BA018060906089500240A941216130614065A
S1130BB0050608950C94A2050E943206D8F3E89421
S1130BC0E0E0BB279F57F0F02AED3FE049EC06C078
S1130BD0EE0FBB0F661F771F881F28F0B23A62071B
S1130BE07307840728F0B25A620B730B840BE395E6
S1130BF09A9572F7803830F49A95BB0F661F771F69
S1130C00881FD2F790480C941C07092E0394000CFB
S1130C1011F4882352F0BB0F40F4BF2B11F460FF92
S1130C2004C06F5F7F4F8F4F9F4F0895EF93E0FF96
S1130C3007C0A2EA2AED3FE049EC5FEB0E94EB0318
S1130C400E9405060F90039401FC9058E1E8F0E03F
S1130C500C942F0757FD9058440F551F59F05F3FD0
S1130C6071F04795880F97FB991F61F09F3F79F0CA
S1130C7087950895121613061406551FF2CF46954C
S1130C80F1DF08C0161617061806991FF1CF8695CE
S1130C907105610508940895E894BB2766277727B2
S1130CA0CB0197F908959B01AC0160E070E080E806
S1130CB09FE30C94B7040E946E060C9405060E94F0
S1130CC0CC0538F00E94D30520F0952311F00C9444
S1130CD09C050C94A20511240C944D060E942A062E
S1130CE070F3959FC1F3950F50E0551F629FF0017B
S1130CF0729FBB27F00DB11D639FAA27F00DB11D94
S1130D00AA1F649F6627B00DA11D661F829F22271C
S1130D10B00DA11D621F739FB00DA11D621F839FA3
S1130D20A00D611D221F749F3327A00D611D231F79
S1130D30849F600D211D822F762F6A2F11249F57C7
S1130D4050409AF0F1F088234AF0EE0FFF1FBB1FCA
S1130D50661F771F881F91505040A9F79E3F510589
S1130D6080F00C949C050C944D065F3FE4F3983E90
S1130D70D4F3869577956795B795F795E7959F5F33
S1130D80C1F7FE2B880F911D9695879597F90895C5
S1130D909F930E94DC050F9007FCEE5F0C941606EF
S1130DA019F416F40C94A2050C941A070E94320646
S1130DB0B8F39923C9F3B6F39F57550B87FF0E94E5
S1130DC028070024A0E640EA90018058569597959C
S1130DD028F4805C660F771F881F20F026173707DA
S1130DE0480730F4621B730B840B202931294A2BEA
S1130DF0A69517940794202531254A2758F7660F9E
S1130E00771F881F20F026173707480730F4620B36
S1130E10730B840B200D311D411DA09581F7B90181
S1130E20842F9158880F9695879508959B01AC015E
S1130E300C945B069F3F31F0915020F48795779591
S1130E406795B795880F911D9695879597F908959D
S1130E5091505040660F771F881FD2F708959F93D3
S1130E608F937F936F93FF93EF939B01AC010E9449
S1130E705B06EF91FF910E94A5052F913F914F9141
S1130E805F910C945B06FC0188279927E8942191D3
S1130E902032E9F3293010F02E30C8F32B3241F020
S1130EA02D3239F4689404C00E948207820F911D88
S1130EB0219120532A30C0F31EF4909581959F4FC1
S1130EC00895FC018191861721F08823D9F7992789
S1130ED008953197CF010895FB01DC0101900D9233
S1130EE00020E1F70895FB01DC014150504048F037
S1130EF001900D920020C9F701C01D92415050404D
S1130F00E0F708957AE0979F902D879F802D910DAB
S10B0F1011240895F894FFCFA9
S1050F180300D0
S9030000FC
