:100000000C942A000C9447000C9447000C94470071
:100010000C9447000C9447000C9447000C94470044
:100020000C9447000C9447000C9447000C94FD027C
:100030000C9447000C9447000C9447000C94470024
:100040000C9447000C9447000C9447000C94470014
:100050000C94470011241FBECFE5D4E0DEBFCDBF16
:1000600010E0A0E6B0E0EAE1F7E002C005900D92F2
:10007000A036B107D9F721E0A0E6B0E001C01D929B
:10008000A034B207E1F70E941F020C948B030C947A
:10009000000095B39F7095BB95B3282F207F922BBE
:1000A00095BBA898A998AA9AEFEFF3E23197F1F7D8
:1000B00000C00000AA9895B39F7095BB95B3829538
:1000C000807F892B85BBA898A998AA9A8FEF93E285
:1000D0000197F1F700C00000AA98089584B3876FD4
:1000E00084BB85B3807885BB089595B39F7095BB1D
:1000F00095B3282F207F922B95BBA89AA998AA9AEE
:10010000EFEFF3E23197F1F700C00000AA9895B342
:100110009F7095BB95B38295807F892B85BBA89AEC
:10012000A998AA9A8FEF93E20197F1F700C0000017
:10013000AA98089583E397E00197F1F7A898A99802
:1001400080E385BBAA9AEFEFF3E23197F1F700C0A5
:100150000000AA98E3E3F7E03197F1F7A898A9988F
:1001600085BBAA9AEFEFF3E23197F1F700C00000E8
:10017000AA98E3E3F7E03197F1F7A898A99885BB2F
:10018000AA9A8FEF93E20197F1F700C00000AA98B6
:10019000E3E3F7E03197F1F7A898A99880E285BBEF
:1001A000AA9A8FEF93E20197F1F700C00000AA9896
:1001B000E3E3F7E03197F1F788E20E94490081E03C
:1001C0000E94490086E00E9449008EE00E9449009A
:1001D00080E80E944900089580E80E94490008953F
:1001E000823071F018F4813031F00895833069F075
:1001F000843081F008958FE7860F0E9449000895AA
:100200008FEB860F0E944900089583E9860F0E94B4
:100210004900089583ED860F0E94490008950F93C9
:100220001F93CF93DF938A01E901882311F06111B5
:1002300003C00E94EC0002C00E94F000C530D1054E
:10024000C9F49801329522952F7023273F702327F8
:10025000A7E4B3E00E943503969587959695879518
:1002600096958795C09690936400809363000E9452
:10027000750004C0C430D10509F0C3C0980136959B
:1002800027953695279536952795A5ECB0E20E94DF
:100290003503AC01529542954F7045275F70452755
:1002A00050936600409365009A01ADECBCEC0E944F
:1002B00035039695879596958795969587959C0194
:1002C000220F331F880F991F880F991F880F991FBE
:1002D000820F931F9A01281B390BC901C096909376
:1002E0006E0080936D000E947500980136952795E9
:1002F00036952795ABE7B4E10E943503AC015695DE
:10030000479550936600409365009A01ADECBCECB4
:100310000E9435039695879596958795969587952E
:100320009C01220F331F880F991F880F991F880F78
:10033000991F820F931F9A01281B390BC901C09680
:1003400090936A00809369000E94750004C0C230D7
:10035000D10509F05BC09801ADECBCEC0E943503FF
:10036000AC015695479556954795569547955093A8
:100370006600409365009A010E9435039695879523
:1003800096958795969587959C01220F331F880F28
:10039000991F880F991F880F991F820F931F9A0129
:1003A000281B390BC901C0969093680080936700A1
:1003B0000E9475009801ADECBCEC0E943503969547
:1003C000879596958795969587959C01220F331F63
:1003D000880F991F880F991F880F991F820F931FED
:1003E0009801281B390BC901C09690936C0080932B
:1003F0006B000E94750026976CF085E40E947500E2
:1004000009C0C330D10509F0A2CF6FCFC130D105EB
:1004100091F7D0CFDF91CF911F910F9108950E9456
:100420002D020E946E000895F8940E940F020E940F
:100430009A000E94E5020E94F302789408950E94B7
:1004400014022FEF8FE39BE0215080409040E1F7B2
:1004500000C000000E943A02F4CF87B38F6087BBD0
:1004600088B3807F88BB81B3806381BB82B38063A4
:1004700082BB08959F92AF92BF92CF92DF92EF928C
:10048000FF920F931F93CF93DF93CDB7DEB7A8975B
:100490000FB6F894DEBF0FBECDBF6BED70E081E705
:1004A00090E00E946D03912C0F2EF1E7CF2EF0E02B
:1004B000DF2EF02D6FE270E0C6010E9462035C0146
:1004C000009749F17C01EC18FD08292D30E08901E5
:1004D000000F111F220F331F220F331F220F331F54
:1004E000020F131FA701B60181E090E08C0F9D1F42
:1004F000800F911F0E9474030E0D1F1DE1E0F0E0BC
:10050000EC0FFD1FE00FF11F1082939465018FEF38
:10051000C81AD80ACFCFCE0101960E944403909307
:10052000D8008093D700CE010B960E94440390938D
:10053000700080936F00CE0145960E944403909313
:10054000DA008093D900CE014F960E944403909325
:10055000D6008093D5004091D7005091D80023E079
:1005600030E061E081E00E940F0140916F00509106
:10057000700023E030E065E081E00E940F014091CF
:10058000D9005091DA0023E030E061E082E00E947F
:100590000F014091D5005091D60023E030E065E096
:1005A00082E00E940F01A8960FB6F894DEBF0FBE3E
:1005B000CDBFDF91CF911F910F91FF90EF90DF9012
:1005C000CF90BF90AF909F9008951EBC8FEF8DBDD0
:1005D00091E09CBD1BBC8ABD19BC88BD81EA8FBD62
:1005E0008DE08EBD08951AB81BB886E880BD8FE2F5
:1005F00089B910BC88E98AB908951F920F920FB685
:100600000F9211248F939F93EF93FF938CB180935C
:100610003F0180913F018E3229F4109261001092C7
:1006200060001AC0E0916000F091610080913F018C
:10063000E552FF4F808380916000909161000196A8
:10064000909361008093600080913F018CB980910C
:1006500062008F5F80936200FF91EF919F918F9175
:100660000F900FBE0F901F901895A29FB001B39FDF
:10067000C001A39F700D811D1124911DB29F700DAB
:10068000811D1124911D0895FC0188279927E89464
:1006900021912032E9F3293010F02E30C8F32B32AB
:1006A00041F02D3239F4689404C00E948303820F14
:1006B000911D219120532A30C0F31EF4909581950D
:1006C0009F4F0895FC018191861721F08823D9F767
:1006D000992708953197CF010895FB01DC0101901E
:1006E0000D920020E1F70895FB01DC0141505040DC
:1006F00048F001900D920020C9F701C01D924150B1
:100700005040E0F708957AE0979F902D879F802DC5
:0A071000910D11240895F894FFCF15
:00000001FF
