S00C0000415652312E73726563FE
S11300000C9450000C946D000C946D000C946D00D5
S11300100C946D000C946D000C946D000C946D00A8
S11300200C946D000C946D000C946D000C943F04C2
S11300300C946D000C946D000C946D000C946D0088
S11300400C946D000C946D000C946D000C946D0078
S11300500C946D00084AD73B3BCE016E84BCBFFDB7
S1130060C12F3D6C74319ABD56833DDA3D00C77F84
S113007011BED9E4BB4C3E916BAAAABE000000801D
S11300803F05A84CCDB2D44EB93836A9020C50B9AC
S1130090918688083CA6AAAA2ABE000000803F00D8
S11300A011241FBECFE5D4E0DEBFCDBF10E0A0E633
S11300B0B0E0E2EEF0E102C005900D92A236B10785
S11300C0D9F720E0A2E6B0E001C01D92A73EB20736
S11300D0E1F70E9445020C946F080C94000095B35C
S11300E09F7095BB95B3282F207F922B95BBA89822
S11300F0A998AA9AEFEFF3E23197F1F700C0000054
S1130100AA9895B39F7095BB95B38295807F892BF0
S113011085BBA898A998AA9A8FEF93E20197F1F763
S113012000C00000AA98089584B3876F84BB85B388
S1130130807885BB089595B39F7095BB95B3282FA0
S1130140207F922B95BBA89AA998AA9AEFEFF3E285
S11301503197F1F700C00000AA9895B39F7095BB42
S113016095B38295807F892B85BBA89AA998AA9A72
S11301708FEF93E20197F1F700C00000AA98089569
S113018083E397E00197F1F7A898A99880E385BBEA
S1130190AA9AEFEFF3E23197F1F700C00000AA98B2
S11301A0E3E3F7E03197F1F7A898A99885BBAA9AF9
S11301B0EFEFF3E23197F1F700C00000AA98E3E310
S11301C0F7E03197F1F7A898A99885BBAA9A8FEF21
S11301D093E20197F1F700C00000AA98E3E3F7E087
S11301E03197F1F7A898A99880E285BBAA9A8FEF76
S11301F093E20197F1F700C00000AA98E3E3F7E067
S11302003197F1F788E20E946F0081E00E946F004D
S113021086E00E946F008EE00E946F0080E80E94DA
S11302206F00089580E80E946F000895823071F095
S113023018F4813031F00895833069F0843081F00E
S113024008958FE7860F0E946F0008958FEB860F45
S11302500E946F00089583E9860F0E946F0008953D
S113026083ED860F0E946F0008950F931F93CF9321
S1130270DF938A01E901882311F0611103C00E9410
S1130280120102C00E941601C530D105C9F49801BB
S1130290329522952F7023273F702327A7E4B3E0DC
S11302A00E941908969587959695879596958795B2
S11302B0C09690936600809365000E949B0004C0E2
S11302C0C430D10509F0C3C09801369527953695F9
S11302D0279536952795A5ECB0E20E941908AC0144
S11302E0529542954F7045275F704527509368009B
S11302F0409367009A01ADECBCEC0E9419089695F6
S1130300879596958795969587959C01220F331F1F
S1130310880F991F880F991F880F991F820F931FA9
S11303209A01281B390BC901C096909370008093E1
S11303306F000E949B009801369527953695279566
S1130340ABE7B4E10E941908AC0156954795509368
S11303506800409367009A01ADECBCEC0E94190858
S11303609695879596958795969587959C01220FE6
S1130370331F880F991F880F991F880F991F820FA9
S1130380931F9A01281B390BC901C09690936C00E6
S113039080936B000E949B0004C0C230D10509F019
S11303A05BC09801ADECBCEC0E941908AC015695F9
S11303B047955695479556954795509368004093B1
S11303C067009A010E9419089695879596958795D6
S11303D0969587959C01220F331F880F991F880FCC
S11303E0991F880F991F820F931F9A01281B390B9D
S11303F0C901C09690936A00809369000E949B0093
S11304009801ADECBCEC0E941908969587959695D9
S11304108795969587959C01220F331F880F991F06
S1130420880F991F880F991F820F931F9801281B0B
S1130430390BC901C09690936E0080936D000E94A1
S11304409B0026976CF085E40E949B0009C0C33092
S1130450D10509F0A2CF6FCFC130D10591F7D0CF2C
S1130460DF91CF911F910F9108950E9459030E942B
S113047094000895F8940E9435020E94C0000E94DE
S113048022040E943504789408950E943A028DEC67
S11304909CECACECBDE380938F0090939000A09310
S11304A09100B093920084E690E09093840080934E
S11304B0830083E090E090938A00809389008BE02E
S11304C090E09093860080938500C0E0D0E02FEF09
S11304D08FE796E1215080409040E1F700C0000092
S11304E0F8940E946E03789422E030E0AE0161E05B
S11304F081E00E943501219660917300709174002F
S113050080917F0090918000681B790B072E000C6E
S1130510880B990B0E9437060E94EC076B017C0143
S11305208091790090917A0020917100309172004D
S1130530821B930BBC01990F880B990B0E94370601
S11305400E94EC074B015C01A5019401C701B601AF
S11305500E94AA040E94AC070E94FF058B017093BD
S11305607E0060937D0060918D0070918E0080917B
S11305708B0090918C00681B790B072E000C880B64
S1130580990B0E94370623EC35EF48E450E40E94AF
S1130590310720E030E044E353E40E948D056B0111
S11305A07C010E9488054B015C01C701B6010E94D1
S11305B09E07A50194010E94290523EA3CE445E62F
S11305C052E40E94310720918F00309190004091B5
S11305D09100509192000E9431074B015C0160939D
S11305E075007093760080937700909378000333BE
S11305F011050CF455C06091830070918400660F5E
S1130600771F072E000C880B990B0E9437066B018D
S11306107C016091850070918600072E000C880B88
S1130620990B0E9437069B01AC01C501B4010E94DD
S113063031074B015C018091890090918A00880FF9
S1130640991FBC01990F880B990B0E9437062B0147
S11306503C01A5019401C701B6010E94AA04A301AB
S113066092010E948D050E94FF05162F60937B0066
S113067070937C00A5019401C701B6010E94A904EE
S1130680A30192010E948D050E94FF0560938700DB
S113069070938800812F0E9430040E94660317CF54
S11306A00E946A0314CF98B3907F8F70982B98BBE5
S11306B0089587B38F6087BB88B3807F88BB81B37D
S11306C0806381BB82B3806382BB089586E00E940D
S11306D05303089580E00E94530308959F92AF92BC
S11306E0BF92CF92DF92EF92FF920F931F93CF931B
S11306F0DF93CDB7DEB7CE56D1090FB6F894DEBF7F
S11307000FBECDBF65E970E0CE01895B9F4F0E94AB
S11307105108912CCE01895B9F4F6C016FE270E010
S1130720C6010E9446085C01009749F17C01EC185F
S1130730FD08292D30E08901000F111F220F331FFE
S1130740220F331F220F331F020F131FA701B601FD
S113075081E090E08C0F9D1F800F911F0E9458082C
S11307600E0D1F1DE1E0F0E0EC0FFD1FE00FF11F87
S11307701082939465019FEFC91AD90ACFCFCE0195
S113078001960E9428089093820080938100209112
S11307906000309161008217930709F040C0CE01D8
S11307A00B960E9428089093720080937100CE01EA
S11307B045960E9428089093800080937F00CE0184
S11307C04F960E9428088C5192409C0122F42227C3
S11307D03327281B390B30938E0020938D00CE01D4
S11307E089960E94280890937A0080937900CE011C
S11307F0C3960E9428089093740080937300CE01DE
S1130800CD960E9428088C5192409C0122F4222704
S11308103327281B390B30938C0020938B00C2594B
S1130820DF4F0FB6F894DEBF0FBECDBFDF91CF917F
S11308301F910F91FF90EF90DF90CF90BF90AF90FA
S11308409F9008951EBC8FEF8DBD91E09CBD1BBC95
S11308508ABD19BC88BD81EA8FBD8DE08EBD089527
S11308601BBC19BC8ABD68BD08951AB81BB886E8BC
S113087080BD8FE289B910BC88E98AB908951F92B6
S11308800F920FB60F9211242F933F934F935F93C0
S11308906F937F938F939F93AF93BF93EF93FF9344
S11308A08091BE008093BD008CB18093BE006FEB3D
S11308B070E085E990E00E9451088091BD008C337E
S11308C061F48091BE00833241F481E08093620040
S11308D010926400109263002BC08091BD0083329B
S11308E069F48091BE008E3349F4109262006FEB7C
S11308F070E085E990E00E9451081AC0809162007E
S11309008130B1F48091BE00833291F0E0916300B4
S1130910F09164008091BE00E154FF4F8083809188
S11309206300909164000196909364008093630047
S1130930FF91EF91BF91AF919F918F917F916F91B3
S11309405F914F913F912F910F900FBE0F901F9089
S113095018955058BB27AA270E94C1040C94DB06A3
S11309600E94A20638F00E94A90620F039F49F3FA5
S113097019F426F40C9478060EF4E095E7FB0C9435
S11309807206E92F0E94000758F3BA17620773072B
S11309908407950720F079F4A6F50C9422070EF449
S11309A0E0950B2EBA2FA02D0B01B90190010C017B
S11309B0CA01A0011124FF27591B99F0593F50F493
S11309C0503E68F11A16F040A22F232F342F4427EB
S11309D0585FF3CF469537952795A795F0405395E3
S11309E0C9F77EF41F16BA0B620B730B840BBAF0B3
S11309F09150A1F0FF0FBB1F661F771F881FC2F71E
S1130A000EC0BA0F621F731F841F48F48795779531
S1130A106795B795F7959E3F08F0B0CF9395880FEB
S1130A2008F09927EE0F9795879508950E94A206DE
S1130A3060F080E891E009F49EEF0E94A90628F096
S1130A4040E851E071F45EEF0CC00C9478060C940D
S1130A502207E92FE0780E94000740F3092E052AB7
S1130A60B1F3261737074807590738F00E2E07F851
S1130A70E02569F0E025E0640AC0EF6307F800941C
S1130A8007FADB01B9019D01DC01CA01AD01EF9355
S1130A900E94A4050E94DB060E9459055F9155231C
S1130AA039F02BED3FE049E450FD49EC0C94AA04E5
S1130AB00895DF93DD27B92FBF7740E85FE316166B
S1130AC0170648075B0718F4D92F0E9429079F933C
S1130AD08F937F936F930E94EC07E4E5F0E00E940C
S1130AE07B060E94DB062F913F914F915F910E94FC
S1130AF04407DD2351F09058A2EA2AED3FE049EC87
S1130B005FE3D0785D270E94C104DF910C94DB067B
S1130B100E94B206E3950C94EC060E94A1050C9485
S1130B20DB060E94A90658F00E94A20640F029F4B0
S1130B305F3F29F00C94720651110C9423070C9416
S1130B4078060E94000768F39923B1F3552391F3C3
S1130B50951B550BBB27AA2762177307840738F028
S1130B609F5F5F4F220F331F441FAA1FA9F335D085
S1130B700E2E3AF0E0E832D091505040E695001C39
S1130B80CAF72BD0FE2F29D0660F771F881FBB1FF3
S1130B90261737074807AB07B0E809F0BB0B802DD1
S1130BA0BF01FF2793585F4F3AF09E3F510578F0FD
S1130BB00C9472060C9423075F3FE4F3983ED4F33D
S1130BC0869577956795B795F7959F5FC9F7880FD1
S1130BD0911D9695879597F90895E1E0660F771F23
S1130BE0881FBB1F621773078407BA0720F0621BB4
S1130BF0730B840BBA0BEE1F88F7E09508950E94DF
S1130C0006066894B1110C94230708950E940807FE
S1130C1088F09F5798F0B92F9927B751B0F0E1F0B9
S1130C20660F771F881F991F1AF0BA95C9F714C069
S1130C30B13091F00E942207B1E008950C9422078C
S1130C40672F782F8827B85F39F0B93FCCF38695A2
S1130C5077956795B395D9F73EF4909580957095FF
S1130C6061957F4F8F4F9F4F0895E89409C097FB7C
S1130C703EF490958095709561957F4F8F4F9F4F6F
S1130C809923A9F0F92F96E9BB279395F6958795B3
S1130C9077956795B795F111F8CFFAF4BB0F11F476
S1130CA060FF1BC06F5F7F4F8F4F9F4F16C088231D
S1130CB011F096E911C0772321F09EE8872F762F53
S1130CC005C0662371F096E8862F70E060E02AF094
S1130CD09A95660F771F881FDAF7880F9695879580
S1130CE097F9089597F99F6780E870E060E00895A8
S1130CF09FEF80EC0895DF93CF931F930F93FF92A0
S1130D00EF92DF927B018C01689406C0DA2EEF012A
S1130D100E944407FE01E894A591259135914591DF
S1130D205591A6F3EF010E94C104FE019701A801A9
S1130D30DA9469F7DF90EF90FF900F911F91CF91B4
S1130D40DF91089500240A9416161706180609065A
S1130D50089500240A94121613061406050608952D
S1130D600C9478060E940807D8F3E894E0E0BB27C7
S1130D709F57F0F02AED3FE049EC06C0EE0FBB0FA1
S1130D80661F771F881F28F0B23A6207730784072B
S1130D9028F0B25A620B730B840BE3959A9572F7A1
S1130DA0803830F49A95BB0F661F771F881FD2F7DF
S1130DB090480C94F207092E0394000C11F4882334
S1130DC052F0BB0F40F4BF2B11F460FF04C06F5FFF
S1130DD07F4F8F4F9F4F0895EF93E0FF07C0A2EA24
S1130DE02AED3FE049EC5FEB0E94C1040E94DB0660
S1130DF00F90039401FC9058E1E8F0E00C9405088E
S1130E0057FD9058440F551F59F05F3F71F04795B7
S1130E10880F97FB991F61F09F3F79F0879508959C
S1130E20121613061406551FF2CF4695F1DF08C0BB
S1130E30161617061806991FF1CF869571056105D8
S1130E4008940895E894BB2766277727CB0197F980
S1130E5008959B01AC0160E070E080E89FE30C948E
S1130E608D050E9444070C94DB060E94A20638F00C
S1130E700E94A90620F0952311F00C9472060C949C
S1130E80780611240C9423070E94000770F3959FA1
S1130E90C1F3950F50E0551F629FF001729FBB276D
S1130EA0F00DB11D639FAA27F00DB11DAA1F649F09
S1130EB06627B00DA11D661F829F2227B00DA11DBC
S1130EC0621F739FB00DA11D621F839FA00D611D42
S1130ED0221F749F3327A00D611D231F849F600D63
S1130EE0211D822F762F6A2F11249F5750409AF08C
S1130EF0F1F088234AF0EE0FFF1FBB1F661F771F18
S1130F00881F91505040A9F79E3F510580F00C94E2
S1130F1072060C9423075F3FE4F3983ED4F386955E
S1130F2077956795B795F795E7959F5FC1F7FE2B82
S1130F30880F911D9695879597F908959F930E9420
S1130F40B2060F9007FCEE5F0C94EC0619F416F44D
S1130F500C9478060C94F0070E940807B8F39923C0
S1130F60C9F3B6F39F57550B87FF0E94FE07002471
S1130F70A0E640EA900180585695979528F4805C45
S1130F80660F771F881F20F026173707480730F4AD
S1130F90621B730B840B202931294A2BA6951794C5
S1130FA00794202531254A2758F7660F771F881F95
S1130FB020F026173707480730F4620B730B840BB5
S1130FC0200D311D411DA09581F7B901842F915841
S1130FD0880F9695879508959B01AC010C94310771
S1130FE09F3F31F0915020F4879577956795B79599
S1130FF0880F911D9695879597F9089591505040C3
S1131000660F771F881FD2F708959F938F937F935E
S11310106F93FF93EF939B01AC010E943107EF9113
S1131020FF910E947B062F913F914F915F910C9409
S11310303107A29FB001B39FC001A39F700D811D12
S11310401124911DB29F700D811D1124911D0895CD
S1131050FC0188279927E89421912032E9F329306B
S113106010F02E30C8F32B3241F02D3239F468944D
S113107004C00E946708820F911D219120532A30D9
S1131080C0F31EF4909581959F4F0895FC018191C2
S1131090861721F08823D9F7992708953197CF012E
S11310A00895FB01DC0101900D920020E1F7089501
S11310B0FB01DC014150504048F001900D920020AA
S11310C0C9F701C01D9241505040E0F708957AE0FD
S11310D0979F902D879F802D910D11240895F8944A
S10510E0FFCF3C
S10510E2030005
S9030000FC
